:020000021000EC
:1002000060CD0020A93E0200E53402007D3E0200E0
:100210007D3E02007D3E02007D3E02007D3E0200EA
:100220000000000000000000000000002D36020069
:100230007D3E020000000000993502007D3E020074
:10024000DD360200DD360200DD360200DD3602005A
:10025000DD360200DD360200DD360200DD3602004A
:10026000DD360200DD360200DD360200DD3602003A
:10027000DD360200DD360200DD360200DD3602002A
:10028000DD360200DD360200DD360200DD3602001A
:10029000DD360200DD360200DD360200DD3602000A
:1002A000DD360200DD360200DD360200DD360200FA
:1002B000DD360200DD360200DD360200DD360200EA
:1002C000DD360200DD360200DD360200DD360200DA
:1002D000DD360200DD360200DD360200DD360200CA
:1002E000DD360200DD360200DD360200DD360200BA
:1002F000DD360200DD360200DD360200DD360200AA
:10030000DD360200DD360200DD360200DD36020099
:10031000DD360200DD360200DD360200DD36020089
:10032000DD360200DD360200DD360200DD36020079
:10033000DD360200DD360200DD360200DD36020069
:10034000DD360200DD360200DD360200DD36020059
:04035000DD36020094
:04035400FFFFFFFFA9
:1003580081F0004102E000BF83F0004330B54FEA6E
:1003680041044FEA430594EA050F08BF90EA020FDB
:100378001FBF54EA000C55EA020C7FEA645C7FEA6E
:10038800655C00F0E2804FEA5454D4EB5555B8BF91
:100398006D420CDD2C4480EA020281EA030382EA02
:1003A800000083EA010180EA020281EA0303362D94
:1003B80088BF30BD11F0004F4FEA01314FF4801C67
:1003C8004CEA113102D0404261EB410113F0004F79
:1003D8004FEA03334CEA133302D0524263EB430330
:1003E80094EA050F00F0A780A4F10104D5F1200ECE
:1003F8000DDB02FA0EFC22FA05F2801841F1000129
:1004080003FA0EF2801843FA05F359410EE0A5F1FC
:1004180020050EF1200E012A03FA0EFC28BF4CF02D
:10042800020C43FA05F3C01851EBE37101F00045E3
:1004380007D54FF0000EDCF1000C7EEB00006EEBF0
:100448000101B1F5801F1BD3B1F5001F0CD349087A
:100458005FEA30004FEA3C0C04F101044FEA4452D1
:1004680012F5800F80F09A80BCF1004F08BF5FEA58
:10047800500C50F1000041EB045141EA050130BD38
:100488005FEA4C0C404141EB0101013C28BFB1F54A
:10049800801FE9D291F0000F04BF01460020B1FA95
:1004A80081F308BF2033A3F10B03B3F120020CDA68
:1004B8000C3208DD02F1140CC2F10C0201FA0CF046
:1004C80021FA02F10CE002F11402D8BFC2F1200CAB
:1004D80001FA02F120FA0CFCDCBF41EA0C01904061
:1004E800E41AA2BF01EB0451294330BD6FEA0404AA
:1004F8001F3C1CDA0C340EDC04F11404C4F1200295
:1005080020FA04F001FA02F340EA030021FA04F3A6
:1005180045EA030130BDC4F10C04C4F1200220FAFD
:1005280002F001FA04F340EA0300294630BD21FA3B
:1005380004F0294630BD94F0000F83F4801306BF01
:1005480081F480110134013D4EE77FEA645C18BFF5
:100558007FEA655C29D094EA050F08BF90EA020F8C
:1005680005D054EA000C04BF1946104630BD91EA84
:10057800030F1EBF0021002030BD5FEA545C05D187
:100588004000494128BF41F0004130BD14F58004C6
:100598003CBF01F5801130BD01F0004545F0FE413A
:1005A80041F470014FF0000030BD7FEA645C1ABF6F
:1005B800194610467FEA655C1CBF0B46024650EAA6
:1005C800013406BF52EA033591EA030F41F40021D2
:1005D80030BD00BF90F0000F04BF0021704730B558
:1005E8004FF4806404F132044FF000054FF000012D
:1005F80050E700BF90F0000F04BF0021704730B5EE
:100608004FF4806404F1320410F0004548BF4042C2
:100618004FF000013EE700BF42004FEAE2014FEA17
:1006280031014FEA02701FBF12F07F4393F07F4FF2
:1006380081F06051704732F07F4208BF704793F0F5
:100648007F4F04BF41F40021704730B54FF4607408
:1006580001F0004521F000411CE700BF50EA01020B
:1006680008BF704730B54FF000050AE050EA0102B4
:1006780008BF704730B511F0004502D5404261EB24
:1006880041014FF4806404F132045FEA915C3FF465
:10069800D8AE4FF003025FEADC0C18BF03325FEA02
:1006A800DC0C18BF033202EBDC02C2F1200300FAB3
:1006B80003FC20FA02F001FA03FE40EA0E0021FAD8
:1006C80002F11444BDE600BF70B54FF0FF0C4CF4C6
:1006D800E06C1CEA11541DBF1CEA135594EA0C0F78
:1006E80095EA0C0F00F0DEF82C4481EA030621EAB3
:1006F8004C5123EA4C5350EA013518BF52EA0335EE
:1007080041F4801143F4801338D0A0FB02CE4FF09F
:100718000005E1FB02E506F00042E0FB03E54FF0CF
:100728000006E1FB03569CF0000F18BF4EF0010EC7
:10073800A4F1FF04B6F5007F64F5407404D25FEAC3
:100748004E0E6D4146EB060642EAC62141EA555176
:100758004FEAC52040EA5E504FEACE2EB4F1FD0CB8
:1007680088BFBCF5E06F1ED8BEF1004F08BF5FEA36
:10077800500E50F1000041EB045170BD06F00046E8
:1007880046EA010140EA020081EA0301B4EB5C0495
:10079800C2BFD4EB0C0541EA045170BD41F480118D
:1007A8004FF0000E013C00F3AB8014F1360FDEBFB2
:1007B800002001F0004170BDC4F10004203C35DA8E
:1007C8000C341BDC04F11404C4F1200500FA05F311
:1007D80020FA04F001FA05F240EA020001F00042B2
:1007E80021F0004110EBD37021FA04F642EB060128
:1007F8005EEA430E08BF20EAD37070BDC4F10C0452
:10080800C4F1200500FA04F320FA05F001FA04F215
:1008180040EA020001F0004110EBD37041F1000101
:100828005EEA430E08BF20EAD37070BDC4F120050C
:1008380000FA05F24EEA020E20FA04F301FA05F274
:1008480043EA020321FA04F001F0004121FA04F21C
:1008580020EA020000EBD3705EEA430E08BF20EAEC
:10086800D37070BD94F0000F0FD101F00046400026
:1008780041EB010111F4801F08BF013CF7D041EAA8
:10088800060195F0000F18BF704703F000465200AC
:1008980043EB030313F4801F08BF013DF7D043EA7D
:1008A8000603704794EA0C0F0CEA135518BF95EA33
:1008B8000C0F0CD050EA410618BF52EA4306D1D1BA
:1008C80081EA030101F000414FF0000070BD50EAD9
:1008D800410606BF1046194652EA430619D094EA63
:1008E8000C0F02D150EA013613D195EA0C0F05D14D
:1008F80052EA03361CBF104619460AD181EA0301A1
:1009080001F0004141F0FE4141F470014FF0000058
:1009180070BD41F0FE4141F4780170BD70B54FF0F3
:10092800FF0C4CF4E06C1CEA11541DBF1CEA135573
:1009380094EA0C0F95EA0C0F00F0A7F8A4EB050455
:1009480081EA030E52EA03354FEA013100F088804C
:100958004FEA03334FF0805545EA131343EA126315
:100968004FEA022245EA111545EA10654FEA0026CA
:100978000EF000419D4208BF964244F1FD0404F583
:10098800407402D25B084FEA3202B61A65EB0305DF
:100998005B084FEA32024FF480104FF4002CB6EB9C
:1009A800020E75EB030E22BFB61A754640EA0C001C
:1009B8005B084FEA3202B6EB020E75EB030E22BF5C
:1009C800B61A754640EA5C005B084FEA3202B6EB9D
:1009D800020E75EB030E22BFB61A754640EA9C005C
:1009E8005B084FEA3202B6EB020E75EB030E22BF2C
:1009F800B61A754640EADC0055EA060E18D04FEAEA
:100A0800051545EA16754FEA06164FEAC30343EA89
:100A180052734FEAC2025FEA1C1CC0D111F4801F56
:100A28000BD141EA00014FF000004FF0004CB6E74F
:100A380011F4801F04BF01430020B4F1FD0C88BFEE
:100A4800BCF5E06F3FF6AFAEB5EB030C04BFB6EBF9
:100A5800020C5FEA500C50F1000041EB045170BDEC
:100A68000EF0004E4EEA113114EB5C04C2BFD4EB19
:100A78000C0541EA045170BD41F480114FF0000E9D
:100A8800013C90E645EA060E8DE60CEA135594EA19
:100A98000C0F08BF95EA0C0F3FF43BAF94EA0C0F1C
:100AA8000AD150EA01347FF434AF95EA0C0F7FF491
:100AB80025AF104619462CE795EA0C0F06D152EAE5
:100AC80003353FF4FDAE1046194622E750EA4106C9
:100AD80018BF52EA43067FF4C5AE50EA41047FF4DA
:100AE8000DAF52EA43057FF4EBAE12E74FF0FF3C3F
:100AF80006E000BF4FF0010C02E000BF4FF0010C10
:100B08004DF804CD4FEA410C7FEA6C5C4FEA430C88
:100B180018BF7FEA6C5C1BD001B050EA410C0CBFD7
:100B280052EA430C91EA030F02BF90EA020F002039
:100B3800704710F1000F91EA030F58BF994208BFA0
:100B480090422CBFD8176FEAE37040F0010070475D
:100B58004FEA410C7FEA6C5C02D150EA013C07D1B4
:100B68004FEA430C7FEA6C5CD6D152EA033CD3D0FF
:100B78005DF8040B704700BF8446104662468C46F9
:100B88001946634600E000BF01B5FFF7B7FF00282C
:100B980048BF10F1000F01BD4DF808EDFFF7F4FF55
:100BA8000CBF012000205DF808FB00BF4DF808EDE0
:100BB800FFF7EAFF34BF012000205DF808FB00BF03
:100BC8004DF808EDFFF7E0FF94BF012000205DF825
:100BD80008FB00BF4DF808EDFFF7CEFF94BF0120DA
:100BE80000205DF808FB00BF4DF808EDFFF7C4FFD3
:100BF80034BF012000205DF808FB00BF4FEA410226
:100C0800B2F1E04324BFB3F5001CDCF1FE5C0DD962
:100C180001F0004C4FEAC0024CEA5070B2F1004FAC
:100C280040EB830008BF20F00100704711F0804FAF
:100C380021D113F13872BCBF01F00040704741F474
:100C480080114FEA5252C2F11802C2F1200C10FA78
:100C58000CF320FA02F018BF40F001004FEAC1235C
:100C68004FEAD32303FA0CFC40EA0C0023FA02F300
:100C78004FEA4303CCE77FEA625307D150EA0133D6
:100C88001EBF4FF0FE4040F44000704701F00040A6
:100C980040F0FE4040F40000704700BF7BB972B9D5
:100CA8000029BEBF00204FF0004106E008BF002821
:100CB8001CBF6FF000414FF0FF3000F075B8ADF188
:100CC800080C6DE904CE002909DB002B1ADB00F0C3
:100CD800E2F8DDF804E0DDE9022304B070474042A1
:100CE80061EB4101002B1BDB00F0D5F8DDF804E0D7
:100CF800DDE9022304B0404261EB4101524263EB5B
:100D080043037047524263EB430300F0C4F8DDF835
:100D180004E0DDE9022304B0404261EB4101704781
:100D2800524263EB430300F0B6F8DDF804E0DDE976
:100D3800022304B0524263EB4303704753B94AB9E4
:100D4800002908BF00281CBF4FF0FF314FF0FF30CB
:100D580000F02AB8ADF1080C6DE904CE00F09BF85C
:100D6800DDF804E0DDE9022304B07047D0B50022C5
:100D78000B4B06460F46FFF7A7FC00F017F8044692
:100D8800FFF728FC0022074BFFF79EFC02460B46A4
:100D980030463946FFF7E0FA00F008F82146D0BDA2
:100DA8000000F03D0000F041704700BF4A0011D23A
:100DB80012F5001211D20DD56FF47873B3EB6252AD
:100DC8000ED44FEAC12343F0004343EA505323FAB9
:100DD80002F070474FF00000704750EA013002D12E
:100DE8004FF0FF3070474FF0000070474FEA410C5A
:100DF8007FEA6C5C02D150EA013C0AD14FEA430C0D
:100E08007FEA6C5C02D152EA033C02D14FF0000049
:100E180070474FF0010070474FEA410212F5001287
:100E280015D211D56FF47873B3EB625212D94FEA29
:100E3800C12343F0004343EA505311F0004F23FA13
:100E480002F018BF404270474FF00000704750EA68
:100E5800013005D111F0004008BF6FF00040704725
:100E68004FF00000704700BF38B500220023044649
:100E78000D46FFF79BFE28B920462946BDE83840B5
:100E8800FFF774BF204605F10041FFF76FFF4042AE
:100E980061EB410138BD2DE9F04F099E88468E4629
:100EA800154604461946002B40F0C6804245B2FA62
:100EB80082F746D94FB1C7F1200C08FA07F3BD40B5
:100EC800BC4020FA0CFC4CEA030E4FEA15481FFA06
:100ED80085FC220CBEFBF8F908FB19E309FB0CFAA8
:100EE80042EA03439A4528D9EB1809F1FF3004D2A6
:100EF8009A4502D9A9F102002B44A3EB0A03A4B234
:100F0800B3FBF8F208FB123302FB0CFC44EA03447F
:100F1800A44514D92C1902F1FF3303D2A44501D9F1
:100F2800931E2C44A4EB0C0443EA00401EB1FC4081
:100F3800002334607360BDE8F08F4846DDE7134650
:100F4800F0E702B9FFDE8FBBA8EB020301214FEAED
:100F5800154EAAB2200CB3FBFEFC0EFB1C330CFB97
:100F680002F840EA0343984562D9EB180CF1FF30C8
:100F780004D2984502D9ACF102002B44A3EB080334
:100F8800A4B2B3FBFEFC0EFB1C330CFB02F244EADA
:100F98000344A2424ED92C190CF1FF3304D2A242C9
:100FA80002D9ACF102032C44A41ABDE7C7F1200C06
:100FB800BD4008FA07F3BC4028FA0CF94FEA154E71
:100FC80020FA0CFC4CEA0302ABB2B9FBFEFC110C94
:100FD8000EFB1C900CFB03F841EA0040804523D926
:100FE80028180CF1FF3104D2804502D9ACF1020176
:100FF8002844A0EB080092B2B0FBFEFC0EFB1C00DC
:101008000CFB03F842EA004398450FD9EB180CF1A2
:10101800FF3204D2984502D9ACF102022B44A3EB6B
:10102800080342EA014192E76146E2E76246F6E7D1
:101038006046A3E76346B7E7434505D90EB1C6E95D
:1010480000080021084676E7B3FA83FCBCF1000FDC
:1010580010D1434501D382420AD8841A68EB0303AE
:1010680001209E46002E68D0C6E9004E002162E7A6
:101078006046F7E7CCF1200E03FA0CF302FA0CF500
:1010880000FA0CF722FA0EF428FA0EFB20FA0EF1F9
:101098001C4308FA0CF34FEA14491943A3B20A0C8B
:1010A800BBFBF9F809FB18BB08FB03FA42EA0B4241
:1010B80092453ED9A21808F1FF3004D2924502D9D0
:1010C800A8F102002244A2EB0A0289B2B2FBF9F8A5
:1010D80009FB182208FB03F341EA024293422AD98A
:1010E800A21808F1FF3104D2934202D9A8F10201F3
:1010F800224441EA0040D21AA0FB059842454B46DB
:10110800414602D306D14F4504D20138B9EB050355
:1011180068EB04018EB1FC1A62EB010707FA0EFEB8
:1011280024FA0CF327FA0CF74EEA0303C6E9003752
:101138009CE74046C7E74146DBE73146FBE610F847
:10114800012B11F8013B012A28BF9A42F7D0D01A87
:101158007047034613F8012B002AFBD1181A0138EF
:1011680070470000000000002DE9F04FA24A4368D4
:101178000446934283B049D0A04A934272D0A04A11
:10118800934200F08A809F4A934200F097809E4DD8
:10119800AB420FD09D499E484FF4A3739D4A09F076
:1011A8008BFE4FF4A3719B4809F07EFE002003B02C
:1011B800BDE8F08F984B82689A42F7D1067B002EE3
:1011C800F4D1964C964FDFF84C92DFF88CB2DFF8EA
:1011D80040A204F130080023204608226946CDE9E0
:1011E80000330C3445F07BFC002800F08280002F8F
:1011F80000F0C98038468A49FFF7A1FF00B90136D7
:10120800A04500F0A08054F8047CE4E7854B1B78E7
:10121800002BCBD1844B1B68002BC7D10069FFF78B
:10122800FBF971A3D3E90023FFF7DEFC7F4D2E689D
:10123800002840F0B380E068FFF7EEF96CA3D3E92B
:101248000023FFF7C7FC002840F0B680784C2368DD
:10125800022BABD90021286806F014F800232B6074
:101268002360A3E7007A002859D00023714C724DFF
:1012780008222870694604EBC000CDE9003345F028
:101288002EFC002840D0674B1B78012B8ED1287884
:1012980004EBC00005F0E4FF88E78368002B85D1E4
:1012A800604B1878002881D15F4BE2681B689A422E
:1012B8007FF47CAF012105F0E5FF77E7007A594B11
:1012C800187070B1012836D04FF48773514A4F49CE
:1012D8004F4809F0F1FD4FF487714E4809F0E4FDDD
:1012E80064E7524A524B01211060186005F0CAFFAA
:1012F8005CE759465046CD234A4609F0DDFD48468D
:10130800CD2109F0D1FD72E7ED234C494048414A0F
:1013180009F0D2FDED213F4809F0C6FDB3E7EA2305
:101328003C4A47493A4809F0C7FD3A48EA2109F0DA
:10133800BBFD207A99E7404A3E4B107803EBC0008A
:1013480005F08EFF32E7012E09D93E493048D523F2
:10135800304A09F0B1FDD5212E4809F0A5FD3A4CD7
:101368002378002B32D1102010F00CF800B1456022
:101378000023364A0373826010F042F9012020707E
:1013880005F034FF12E75046CE234A46304909F0AB
:1013980093FD4846CE2109F087FD2BE7204CA64255
:1013A80005D076B131462046FFF7C9FE48B9204C32
:1013B8002368013323604BE7A468B442F7D0002CBC
:1013C800EFD101221A4B2C601A60EFE640F21F138E
:1013D80020490F480F4A09F06FFD40F21F110D48D0
:1013E80009F062FDBFE700BF333333333333D33FF4
:1013F800666666666666E63F84560600F45506002D
:10140800545606006C560600B456060038340600DA
:1014180094890500DC8F0500AC580600DC910500B6
:10142800D08F05009A2C0020B8560020BC5600200A
:10143800C4560020AC910500992C0020909005001E
:10144800288A050004910500A48E0020B4580600DF
:10145800F89005001C910500D890050000000000D8
:101468002DE9F04F2DED028B83B0A94A436804465D
:10147800934200AF67D0A74A934272D0A64EB342B8
:1014880000F08880A54A934212D0A549A54840F2A9
:101498002F13A54A09F010FD40F22F11A24809F0B8
:1014A80003FD00200C37BD46BDEC028BBDE8F08F74
:1014B8009E4A9F498368521AB3EBA20F80F0F380CB
:1014C80001229C49207B03F01F045B0901EB830385
:1014D800A24080BBD243D3E8EF0F1040C3E8E40F2B
:1014E800002CF8D1944D2B78013B012BD9D8D1E8A9
:1014F800AF3F002B00F0E5802B78022BD1D00224DF
:101508008E496E4688B06B468D4A02205A611A464B
:1015180099618C49187742F8101F00234FF4D6516F
:1015280089480AF04BFE022CB54600F0E08005F031
:1015380095FF2C70B5E7D3E8EF0F1043C3E8E40F2D
:10154800002CCFD0F7E780688049EB46884202D06C
:10155800FFF7F5FD18B9784D2B78022B4DD0DD46F5
:101568009FE7754D027A2B78002A39D1032B98D141
:10157800704BD3E8AF3F002B00F0B6800222744BCB
:101588002A701B781A078CD49C0700F1228105F079
:1015980021FF86E76F4B82689A4282D1037B002B3A
:1015A8007FF47FAF644D2B78002B40F00181684AAF
:1015B8006948137843F0040313702CF039FE0028AF
:1015C80040F0D880032310202B700FF0DBFE00B111
:1015D80046600023614A0373826010F011F860E7E7
:1015E800013B012B3FF65DAF05F038FF10B110301D
:1015F8007FF457AF03232B7053E7E3685E0767D187
:10160800DA084FEA820A0AF1070323F00703ADEB71
:10161800030D6B467A6008EE103AE2B11E469A4412
:101628006069FEF7E7FF38A3D3E90023FFF776F9EF
:10163800804620698946FEF7DDFF02460B46404694
:101648004946FEF78BFEFFF7D9FA46F8040BB24578
:1016580004F10804E4D118EE100A79682CF09EFB16
:1016680000283FF47CAF6C4688B06A4603233C49A7
:101678009061516142F8103F002333484FF4C25142
:101688000AF09CFD04231020A5462B700FF07AFE6B
:1016980008B1214B43600323304A037382600FF083
:1016A800AFFFDD46FDE640F205131F4A2D491D48F0
:1016B80009F002FC40F205111B4809F0F5FBA3688C
:1016C800FEE62B78012B3FF4ECAE0124264918E7FF
:1016D8006423264A2649134809F0EEFB642123486F
:1016E80009F0E2FBE3688BE701232B70D9E6184B7E
:1016F8001B7818073FF51DAF990764D405F06AFEFB
:101708002C70CEE6AFF300800000000080842E41EC
:10171800FC5606006C560600B45606009C56060099
:1017280038340600948905002C920500F05806000C
:10173800AC580600C8560020A68E0020C0920500AE
:101748006893050003000001087F0500F08D05007F
:10175800A58E0020AC58060041750100B858060057
:10176800C89205003C930500B8920500FC8D050061
:10177800308E05006C4688B06A460323184990618C
:10178800516142F8103F002316484FF4C2510AF045
:1017980015FD04231020A5462B700FF0F3FD00B1B2
:1017A80046600323104A037382600FF029FF78E62E
:1017B800F6230E490E480F4A09F07EFBF6210D4824
:1017C80009F072FBF3E605F049FE002896D02C706C
:1017D80067E605F043FE00283FF4D9AE61E600BF96
:1017E80008930500087F0500B8580600F092050028
:1017F800948905002C9205002DE9F04F2DED028B00
:101808004E0085B002904BD000249B462546924658
:10181800DFF8AC80E20706F1FF33ABEB05070AEB14
:10182800050917D5A342484618BF4246394608BF9E
:10183800214A43F059FB002804F10104054404DB64
:10184800B8422FD2B442E5D1284605B0BDEC028B90
:10185800BDE8F08F029A6308039302EBC30358684C
:10186800FEF7C8FE12A3D3E90023FFF757F80B468B
:10187800029902460846039943EC182B50F83100A8
:10188800FEF7B8FE02460B4651EC180BFEF766FD54
:101898000A4ACDE900014846394643F025FBCAE724
:1018A8003046D2E76FF06800CFE700BFAFF30080A3
:1018B8000000000080842E41C43F06007C9405008F
:1018C8008494050000000000014640F2E73010B59E
:1018D8004FF47A7282B0002300EBC130490CFFF755
:1018E8002DFA00249FED067B02460B4606488DED37
:1018F800007B3DF0F5FF204602B010BDAFF300803D
:101908000000000000000000482D0020000000003A
:101918002DE9F04F406887B004688C425AD9D31833
:1019280058D24FF47A75A3FB0573002B52D1A2FB52
:1019380005320293002A4DD143680A0103EB0111D5
:101948009E588B89D1F804900393B3684946304672
:101958005B6804AA9847002836DBDDE9044B05FBE1
:1019680007F3A3FB04A703FB0B771DA3D3E900230D
:1019780050463946FFF7E2F94FF0FF3353451A4B0B
:10198800804673EB070022D315A3D3E900230299FD
:1019980005FB01F1A1FB047401FB0B4B38465946CA
:1019A800FFF7CCF94FF0FF310F4AB94272EB0B0247
:1019B80003460CD39845B4680CD3039A4946009261
:1019C800304642462468A04707B0BDE8F08F6FF064
:1019D8008500F9E76FF01500F6E700BFAFF3008068
:1019E80000CA9A3B00000000FFC99A3B00000000B3
:1019F8002DE9F04F436814461A6887B08A424FD9D8
:101A0800642C4DD85B680A0103EB01119E588B8941
:101A1800D1F804A08F680293B368514630465B68DA
:101A280004AA9847002838DBDDE90453A7FB05B86A
:101A380007FB0388039358461DA3D3E900234146B7
:101A4800FFF77CF94FF0FF3159451B49814671EB8F
:101A5800080C28D307FB04F4184F039AA7FB047457
:101A68006409A4FB058504FB025411A3D3E90023F0
:101A780040462146FFF762F903464FF0FF300E4912
:101A88004045A1410FD39945B46809D3029A5146FC
:101A9800009230464A462468A04707B0BDE8F08F58
:101AA8006FF01500F9E76FF08500F6E7AFF30080F7
:101AB80000CA9A3B00000000FFC99A3B1F85EB5102
:101AC8009FED037B002082ED007B7047AFF3008021
:101AD8000024F40000000000F0B59FED1F7B0025F6
:101AE8004FF4803E02264FF4003C4FF400171C4C84
:101AF8001C4B1D4A83B0C4F80855012183ED027BB5
:101B08001520C4F804E383ED067BC4F804C3C4F8C5
:101B18000463C2F880712A4611F0A8FC152011F060
:101B280073FC4FF0030C01231049114F114AA360B5
:101B380028462360C7F800C00023CDE900151660C9
:101B48000D4A2AF00DFA304625F080F9284603B0F0
:101B5800F0BD00BFAFF30080FFFFFFFFFFFFFFFFF7
:101B680000500150D050002000E100E0D5BE030035
:101B78004870002040700020FFFF7F000000000038
:101B88002DE9F0474E4B82B0D3F80423920704D5D1
:101B9800D3F80421002A40F082800024494D484EA1
:101BA800494FDFF834814FF02002EFF3118382F3BD
:101BB8001288BFF36F8F4FF48031D6F80423A14009
:101BC80011420AD183F31188BFF36F8F10350CB916
:101BD8000124E8E702B0BDE8F0870122A240D24321
:101BE800D7E8EF0F00EA020CC7E8EECFBEF1000F0E
:101BF800F6D1A20018B958F824000028E2D0002035
:101C080042F8080052F8082083F31188BFF36F8F59
:101C18002E4B18684FEA102C0006BFF35F8FD6F8DA
:101C2800043518184CF1000CB3F5801F0AD2284B64
:101C3800D3E9002390427CEB030303D210F18070B8
:101C48004CF1000C4FF02003EFF3118A83F3128854
:101C5800BFF36F8F1F4B03EB041EDEE90223904294
:101C68007CEB030016D300209FED137B55F8049CF2
:101C780045F8040C28688EED027BC6F848138AF3F1
:101C88001188BFF36F8FB9F1000F9FD000902046E5
:101C9800C8479BE78AF31188BFF36F8F96E7002147
:101CA8000A4AC3F80411D3F80431136801331360E6
:101CB80073E700BFAFF30080FFFFFFFFFFFFFFFFE9
:101CC80000500150D4500020447000204C70002077
:101CD800C8500020D05000204051015000000000A2
:101CE8002DE9F04F2DED0E8BABB01193BDF80831F7
:101CF800164614934A6843689DF80C41934216901F
:101D080008911394109240F0E6810123449AB0EEB2
:101D1800419A5268F0EE408A10EE907A816803EB9F
:101D28004403002A76D1994240F0D581449B9968B2
:101D3800012940F0D081109CA30018469A461593BB
:101D48003FF010F901461290002866D008984268C2
:101D5800944240F0AF81002C6CD084688E4607EE28
:101D6800904AF8EE676A0068C4EB847C88460D46A2
:101D78004FEA8C0C4FEA840900EB8401D644DFED6E
:101D8800B37A3CB10CEB0103B3EC017A994277EEDC
:101D9800877AF9D187EEA67AA5EC017AAE4549444F
:101DA800EDD1002504FB05F310EB8300DDF820A03E
:101DB8001FD0B8EC017A84B100214FEA84090346A8
:101DC80000EB0902D3ED007A77EEC77AE3EC017AEB
:101DD8009A42F7D1D9B9DAF804200135AA4223D9B1
:101DE800DAF80840DAF8000004FB05F310EB83008A
:101DF800DFD14FEA8409012148463FF0B3F80028B3
:101E080000F05881B8EC017A0CB10121D7E73FF016
:101E1800ABF8E0E7013A134485E78D4E30462BB026
:101E2800BDEC0E8BBDE8F08F012E00F04F83022E23
:101E380000F07081012115983FF094F8099000286E
:101E480000F04281089B5A68109B934240F0288614
:101E58005AB39FED7E8A0024099D089EB068002829
:101E680000F034819FED797A00FB04F331681F1884
:101E780001EB830301EB8701F3EC017A9942A7EEAA
:101E8800A77AF9D107EE900AF8EE677A87EE270A63
:101E9800B5EE400AF1EE10FA00F11986F1EEC07ABB
:101EA8000134A242E5EC017AD8D8139C159B600056
:101EB800012103FB00F03FF055F822B210900028F2
:101EC80000F0B88508984368002B00F0A485139BA0
:101ED8009FED5E8A002B4FEA430303F1010318BF0D
:101EE8001C46099B08BF01240893002380460393DE
:101EF800149B0C9459105D0801F18043013B9B0031
:101F08000F9302EB8203D20006924A1E01350B9210
:101F18005A00DB0017936B1E1193A3000E914FEA32
:101F2800850A159222AF0D93D8F80840D8F80030EA
:101F3800039AA00002FB0033002B00F0AE821A9334
:101F480000238DF8743001231C941B930121504603
:101F58003FF008F88146002800F0B085149C02463E
:101F68002B461C991A9800942BF050FA002840F040
:101F7800AB8507EE904AB0EE006AF8EE676AF7EEB6
:101F8800007A86EE267AB4EE677AF1EE10FA0AD075
:101F980003464A46D2ED007A67EE277A01339D421E
:101FA800E2EC017AF6D8012106983EF0DBFF0490B6
:101FB800002800F08685012150463EF0D3FF834675
:101FC800002800F08C80B7EE007AC7EE287A77EE0A
:101FD800A77A0E9B87EE276A002B7ED0012B00F094
:101FE800EC83DDED0B7AF8EEE77A02460023C6EEC5
:101FF800276A0B9907EE903AB8EEE77AF0EE487A3E
:10200800E6EE877A01339942E2EC017AF2D10F9B2E
:102018005B4483ED006A012117983EF0A3FF044654
:102028000A90002800F0EE811198002800F00F8532
:10203800012899ED007A00F00A8501220023A446C0
:10204800DDF854E009F104012AE000BF00000000B7
:1020580016FCFFFFD1ED006AF4EEE67AF1EE10FA15
:1020680025DD37EEC77A77EEE66A37EE267AB5EEE3
:10207800C07AF1EE10FA0CEB830403F1010616DDC9
:1020880007EE902AF8EEE77AB3B29E45C4ED007ADF
:1020980000F0BD8111ED017A0132904240F2B78122
:1020A800F1EC017AB4EEE77AF1EE10FAD2D4B0EEA0
:1020B800677AF1E7144E12983EF056FF30462BB07F
:1020C800BDEC0E8BBDE8F08F104EF4E7F0EE487AC9
:1020D8009FED0F7ADAE60C4EA0E63EF045FF0A4E79
:1020E80004983EF041FF48463EF03EFF1A9820B162
:1020F8009DF87430002B40F0A68410983EF034FF11
:1021080009983EF031FFD6E714FCFFFF16FCFFFFED
:1021180000000000002A3FF48DAE3846FEF77CFA36
:1021280000231793119B5B1004939B001993E2A360
:10213800D3E90023FEF7C8FA044618EE900A0D46C4
:10214800FEF76AFA02460B4620462946FEF7E6FBEA
:1021580041EC100B01F020FC51EC100BFEF74EFD8A
:1021680008EE100AFEF758FA28EE088A41EC1E0B12
:10217800089B049D9C681B68042128460F930394C0
:102188003EF0F0FE0346179A042102FB04F22846AB
:1021980018920A933EF0E6FE034604212846099366
:1021A8003EF0E0FE0346042128460B933EF0DAFE9B
:1021B8000346042128460C933EF0D4FE034604212E
:1021C80028460D933EF0CEFE0E90002D00F08C8038
:1021D8001198FEF70FFA02460B46FEF7BFF8DDE945
:1021E80009AB41EC1B0B51EC1E0B1EEE102A0B46E3
:1021F800F7EE009AFEF7B2F879EEC87A02460B4677
:1022080017EE900A43EC1C2BFEF706FA02460B4623
:10221800FEF7A4F802460B4618EE100A43EC1D2BF5
:10222800FEF7FAF9002641EC1A0B0B9F3046FEF731
:10223800E1F902460B46FEF791F80022A04BFEF7A3
:102248008DF89DA3D3E90023FEF73EFA53EC1B2B30
:10225800FEF764FB41EC100B01F046FB51EC100B50
:10226800FEF7CCFCFEF7D8F953EC1C2BFEF72CFA42
:1022780053EC1A2B80468946FEF770F80022904BE3
:10228800FEF76CF8FEF7BAFC07EE100AC9EE877A7B
:10229800EBEC017AFEF7C0F904460D4622462B46C0
:1022A80051EC1D0BFEF73AFBFEF7A8FC42464B46E5
:1022B8004AF8040B51EC1A0BFEF74EF80022804B3B
:1022C800FEF74CF801F10041069007912B46DDE935
:1022D80006012246FEF722FBFEF790FC049B01361E
:1022E800B34247F8040BA1D1039B002B6FD0189A77
:1022F800039B0F99134401EB830301EB820A0F93AD
:10230800199A099B13440393049B002B5AD0DDE9C7
:1023180009960D9C0B9F0E9DDDF83080D5ED005A77
:10232800F7EC017AB9EC016AD4ED006A67EEA57A98
:102338009AED007AE6EE267A77EE877AC8ED007A8B
:1023480017EE900AFEF768F902460B4654F8040B9C
:1023580043EC1A2BFEF760F902460B46FDF7FEFF29
:1023680002460B4651EC1A0BFDF7F6FF02460B46E8
:1023780055F8040B43EC1A2BFEF74EF902460B46B0
:1023880051EC1A0BFDF7EAFF02460B4656F804BB60
:1023980043EC1A2B5846FEF73FF90B46024651EC20
:1023A8001A0BFEF791F9FEF729FCCAF8000054F859
:1023B800043C45F8043C58F8043B44F8043C039BAF
:1023C8004B45ABD10F9B0AF1040A53459CD10A989F
:1023D8003EF0CAFD09983EF0C7FD0B983EF0C4FDDB
:1023E8000C983EF0C1FD0D983EF0BEFD0E983EF0F3
:1023F800BBFD089B179A5B680132934217923FF620
:10240800B7AE17E558463EF0AFFD2E4E68E6002100
:10241800CDE926112891002B00F01D831C46CDF82C
:1024280060800E46A8460B460A9D0CE01BB197E853
:10243800030083E80300083327930136F6B2A64267
:1024480080F2BE81289905EB8600D0ED007AFCEE7B
:10245800E77A17EE902A0BEB820212682292D0EDEF
:10246800007AFCEEE77A17EE902A09EB8202D2EDA9
:10247800007AB4EEE79AF1EE10FACDED237AC4BFF4
:102488008DED228A8DED238A8B42CFD119463A46AB
:1024980026A82BF031FF279BCFE701213EF062FDF4
:1024A80001231C94CDE91A038DF8743000287FF4B9
:1024B8004DAD054E21E600BF182D4454FB210940BF
:1024C8000000F03F14FCFFFF16FCFFFF002A3FF45A
:1024D800B1AC3846FEF7A0F800231793119B5B10A8
:1024E80006939B001993F0A3D3E90023FEF7ECF8B9
:1024F800044618EE900A0D46FEF78EF802460B4683
:1025080020462946FEF70AFA41EC100B01F044FA7E
:1025180051EC100BFEF772FB09EE900AFEF77CF8FF
:1025280069EEA99A41EC1E0B089B069D9C681B68E6
:10253800042128460F9303943EF014FD0346179A8E
:10254800042102FB04F2284618920A933EF00AFD81
:1025580003460421284609933EF004FD034604215E
:1025680028460B933EF0FEFC0346042128460C93B4
:102578003EF0F8FC0346042128460D933EF0F2FC99
:102588000E90002D00F08A801198FEF733F802466D
:102598000B46FDF7E3FEDDE909AB41EC1B0B51EC03
:1025A8001E0B1EEE102A0B46FDF7D8FEF7EE007A3A
:1025B80077EEE97A41EC1C0B17EE900AFEF72CF83F
:1025C80002460B46FDF7CAFE02460B4619EE900A74
:1025D80043EC1D2BFEF720F8002641EC1A0B0B9F4D
:1025E8003046FEF707F802460B46FDF7B7FE002215
:1025F800AF4BFDF7B3FEACA3D3E90023FEF764F8B5
:1026080053EC1B2BFEF78AF941EC100B01F06CF927
:1026180051EC100BFEF7F2FAFDF7FEFF53EC1C2B02
:10262800FEF752F853EC1A2B80468946FDF796FEC2
:1026380000229F4BFDF792FEFEF7E0FA07EE100A24
:10264800C9EE877AEBEC017AFDF7E6FF04460D4602
:1026580022462B4651EC1D0BFEF760F9FEF7CEFA29
:1026680042464B464AF8040B51EC1A0BFDF774FE30
:1026780000228F4BFDF772FE01F100410490059195
:102688002B46DDE904012246FEF748F9FEF7B6FAC3
:10269800069B0136B34247F8040BA1D1039B002BDC
:1026A8006FD0189A039B0F99134401EB830301EB36
:1026B800820B0F93199A099B13440393069B002BD3
:1026C8005AD0DDE909A60D9C0B9F0E9DDDF83090D0
:1026D80095ED006AB7EC018AFAEC016A94ED007A8C
:1026E80028EE068ADBED007AA6EE878A38EE278A7E
:1026F80089ED008A54F8040BFDF78EFF02460B465D
:10270800FDF72CFE02460B4618EE100A43EC1A2B76
:10271800FDF782FF02460B4651EC1A0BFDF71EFE31
:1027280002460B4655F8040B43EC1A2BFDF774FFD1
:1027380002460B4651EC1A0BFDF710FE02460B46FB
:1027480056F8048B43EC1A2B4046FDF765FF0B4601
:10275800024651EC1A0BFDF7B7FFFEF74FFACBF81C
:10276800000054F8043C45F8043C59F8043B44F88C
:10277800043C039B5345ABD10F9B0BF1040B5B450A
:102788009CD10A983EF0F0FB09983EF0EDFB0B98BF
:102798003EF0EAFB0C983EF0E7FB0D983EF0E4FBB8
:1027A8000E983EF0E1FB089B179A5B680132934252
:1027B80017923FF6B9AEFFF73DBB80ED008A2AE4D9
:1027C8001C46269845461E1AA042DDF860804FEA4E
:1027D800E60300F03681B3FA83F2C2F11F024FF02C
:1027E80000032146520018902AF0E8FC802E189821
:1027F80040F3238100F1800631462AF0B7FDA64256
:1028080029D01898A4F1080C00F17806334693ED06
:10281800037AD3ED017AB4EEE77AF1EE10FA06F115
:1028280008063446D3F808E00FDD93E8030003F107
:10283800080282E803001C4653ED017AB4EEE77AF9
:10284800F1EE10FAA3F10803EFDCB44584ED017A48
:10285800C4F800E0DAD1DDE92604231ADB10139A64
:102868009A422BD9CDF860801E46A846139D09E0F0
:102878001CB197E8030084E8030027930136B542AA
:1028880018D9279C289B8DED228AA3428DED238A97
:1028980004F10803ECD121463A4626A82BF02CFD7A
:1028A800ECE700BFAFF30080182D4454FB2109402A
:1028B8000000F03F45462698DDF86080139B73B111
:1028C80003460699049A0C1819680833116053F8DE
:1028D800041C9C4202F1080242F8041CF4D108B11D
:1028E80044F0AEF80A983EF03FFB58463EF03CFBF9
:1028F800012150463EF036FB01242095CDE91E0407
:102908008DF88440002800F0BB80214650463EF0F8
:1029180029FBCDE923458DF894402290002800F04A
:10292800A180B0EE680A3A46149B1EA91AA82AF09C
:10293800ABFE002840F0B280449B21465E68013E11
:10294800B0003EF00FFB27968DF8A44028942690FF
:10295800002800F09880B0EE680A3946449A1EA80C
:1029680026AB2AF0DBFD002840F09D80089B1699D5
:1029780053F8042B039808938B68096800FB03F34A
:1029880001EB8301139B0A6063B10B460698049A16
:10299800441810680832586052F8040C43F8080FBD
:1029A8009C42F6D1DDE926039BB10C9AF2EE046A4B
:1029B8001344024601EB83040D9BCB182899890028
:1029C80092ED007AC7EE267AE3EC017AA3420A4434
:1029D800F6D110B19DF8A4304BBB229810B19DF8E8
:1029E8009430F3B91E9810B19DF88430E3B9049877
:1029F8003EF0BAFA48463EF0B7FA1A9810B19DF878
:102A080074305BB9039B01331A460393D8F804303A
:102A180093423FF689AA0026FFF76FBB3EF0A4FA5F
:102A2800F0E73EF0A1FADDE73EF09EFADFE73EF080
:102A38009BFAD2E7294EFFF763BB21462AF096FCA2
:102A480009E720460BE73EF08FFAFFF756BB002355
:102A5800CDE926332893139B002B3FF443AF002383
:102A68001C46FFE61D4E1E9800283FF439AB9DF822
:102A78008430002B3FF434AB3EF076FAFFF730BBDE
:102A8800164EFFF72DBB154E22980028EBD09DF867
:102A98009430002BE7D03EF067FAE4E70646F3E708
:102AA8000F4EFFF72DBB064626980028ECD09DF860
:102AB800A430002BE8D03EF057FAE5E7074EFFF7C1
:102AC80015BB064EFFF70FBB054EFFF70CBB41F0D9
:102AD800D1F97268F0EE407AFFF7E2B916FCFFFF11
:102AE80014FCFFFF000000002DE9F04F00F1D803AF
:102AF8002DED028B054608EE103A8F4EDFF85892FE
:102B0800DFF858B287B000F1D00A4FF02003EFF396
:102B1800118783F31288BFF36F8F304639F036FB85
:102B2800002857D0304639F04FFBD5F8C840002C64
:102B380065D0D5F8CC202368944208BFC5F8CC30BE
:102B4800C5F8C830D5F8E030304643F00203C5F880
:102B5800E030E368D4F8048023F0040343F0010371
:102B6800E36039F021FB002800F0AE8087F311887C
:102B7800BFF36F8FB8F1000F00F0BC802046C0474C
:102B88004FF02003EFF3118783F31288BFF36F8FA1
:102B9800304639F0FBFA002878D0304639F014FB7B
:102BA800E368990723F001023ED4E260D5F8E040DB
:102BB800304624F00204C5F8E04039F0F5FA002860
:102BC80073D087F31188BFF36F8FE3059DD43BF073
:102BD800BFFE9AE78E234A465946584808F06CF9D2
:102BE8003146574808F068F98E21484608F05CF9E4
:102BF800304639F0E9FAD5F8C840002C99D1D5F813
:102C0800E03023F004025807C5F8E02000F1868080
:102C18009FED477B00235246394630468DED007BB9
:102C280002933CF083FA70E7464A23F003031068E6
:102C3800E3600028BAD005972F46254603684FF071
:102C480000081C46436802469D4207D0DCB1204676
:102C5800436890469D4202462468F7D10268B8F15D
:102C6800000F54D0374B5B68C8F80020834204BF7C
:102C7800344BC3F80480002340F8083B39F05CFE6D
:102C88004246002CE3D13D46059F8FE78E234A46F6
:102C980059462A4808F010F93146294808F00CF935
:102CA8008E21484608F000F977E7B9234A462348B9
:102CB800254908F001F93146244808F0FDF8B92102
:102CC800484608F0F1F87CE7B9234A461E491B48F4
:102CD80008F0F2F831461D4808F0EEF8B9214846E8
:102CE80008F0E2F887F31188BFF36F8FB8F1000F8F
:102CF8007FF444AF40F29B2315491048154A08F069
:102D0800DBF840F29B21134808F0CEF836E70D496E
:102D18004B680A608342AED14A60ACE718EE104AAD
:102D28000022012120463CF063F90028F8D16FE722
:102D3800FFFFFFFFFFFFFFFF888400209489050045
:102D4800FC9605008C840020B4960500CC960500FE
:102D5800DC2E0600B82E060084960500E4960500D1
:102D68002DE9F84F2DED028B05463AF059FF4FF04B
:102D78002003EFF3118B83F31288BFF36F8F624840
:102D8800D8465E4639F002FA002800F08F80DFF856
:102D980098B15D4839F018FADBF80040DFF88CA1EB
:102DA8005C455A4FCAF8005044D09FED558B2B46CE
:102DB800DFF854914FEAE37CD7E90020002C00F0BB
:102DC8009380D4E90461B3427CEB0105C0F28F80A3
:102DD800B21840EBE67384ED048B2046C7E9002364
:102DE8003CF0D0F9484639F0DFF9002840D088F3A4
:102DF8001188BFF36F8F2046A36898474FF02003D0
:102E0800EFF3118883F31288BFF36F8F484639F0C8
:102E1800BDF9454600283AD0484639F0D5F9DAF8E0
:102E28000030DBF800409B1B5C45CAF80030C1D17C
:102E38002E461D464FEAE57C00243B68CAF8004050
:102E48005B193B607B6843EB0C037B603CF0B6F995
:102E5800214629F04FFA2C4839F0A6F9002834D039
:102E680086F31188BFF36F8FBDEC028BBDE8F88F36
:102E7800B923274A2748284908F01EF84946274811
:102E880008F01AF8B921224808F00EF8AFE78E23A7
:102E98001F4A2048224908F00FF84946214808F0FF
:102EA8000BF88E211A4807F0FFFFB5E78E23184A62
:102EB8001B49184808F000F813491A4807F0FCFFA6
:102EC8008E21134807F0F0FF61E7B923104A124931
:102ED800104807F0F1FF0C49104807F0EDFFB92141
:102EE8000B4807F0E1FFBBE71D464646A4E7F61A84
:102EF80061EB0C0126611D46464661619CE700BFF7
:102F08000000000000000000A884002040560020B7
:102F18008496050094890500B4960500CC960500B2
:102F2800E4960500FC96050010290020A4840020E2
:102F380070B5043282B014D29FED157B0D468DED2D
:102F4800007B41F00401064638F06AFD48B10446AA
:102F580044F8046B15B16B1E1C4206D1204602B022
:102F680070BD0024204602B070BD25230A4A0B49D3
:102F78000B4807F0A1FF2A4621460A4807F09CFFA4
:102F88002521054807F090FF204602B070BD00BF1C
:102F98000000000000000000E433060008340600CA
:102FA800948905003C34060030B5021D83B023D255
:102FB8009FED137B144D042128468DED007B38F0DE
:102FC8002FFDC8B1044644F8045BA30702D120468C
:102FD80003B030BD25230D4A0D490E4807F06CFF9C
:102FE800214604220C4807F067FF2521074807F00F
:102FF8005BFF204603B030BD0024204603B030BD3F
:103008000000000000000000202E0020E43306002D
:1030180008340600948905003C34060000000000CE
:103028002DE9F04F2DED028B8A4600F1210183B086
:10303800C90004460191002B00F00F81002A00F01E
:1030480019811968019881427ED315460199196042
:103058002046C5E9004AFDF7CDFA06460F46BAF103
:10306800000F00F0C880002C2FDD0FF22C29D9E9C1
:103078000089AB464FF0000A5046FDF7BBFA4246BE
:103088004B46FDF721FB32463B46FDF747FC41EC3A
:10309800100B41EC180B00F04FFB51EC100BFDF737
:1030A800ADFDB0EE480AF0EE680ACBF8080100F072
:1030B8001BFC51EC100BFDF7A1FD0AF1010A544568
:1030C8000BF1080BCBF80401D6D147EC106B40F09C
:1030D8005FFE00F085FB4FF004082B4605F1080A57
:1030E80057EC106B45469846DFF8B4B194FBF5F3FE
:1030F80005FB1342F2B1022D3AD0042D52D1002221
:103108004FF0804330463946FDF750FD58BBE10784
:103118002ED40223CAF8003004EBD4735B10032CBE
:10312800CAF804301DDDDA070AF1080A1FD402259F
:1031380093FBF5F3D146012B49F8085B1C46CAF806
:1031480004300EDDCA46D1E7002518600E9B13B186
:103158001A46019B1360284603B0BDEC028BBDE8FC
:10316800F08F4546F2E7D1462546CA46BEE71C46DB
:10317800002230463946444BFDF718FD0028F2D1AD
:10318800424B0BFB0433B3F1553F13D3D14605250E
:1031980000223F4B30463946FDF708FD0028D1D0C4
:1031A8002546E2E702352846FDF724FAD1460246CD
:1031B8000B46EFE70323CAF80030364B052C83FB98
:1031C8000423A3EBE473CAF80430CADD2F4A0AF1DA
:1031D80008090BFB0322B2F1553F46D20325CA4624
:1031E80093FBF5F3D146012B49F8085B1C46CAF856
:1031F8000430A7DCB5E7002C7FF767AF0FF2800932
:10320800D9E90089AB465046FDF7F4F942464B46EA
:10321800FDF75AFA32463B46FDF780FB41EC100BAE
:1032280041EC180B00F088FA51EC100BFDF7E6FCA6
:10323800B0EE480AF0EE680ACBF8080100F054FB3B
:1032480051EC100BFDF7DAFC0AF1010A54450BF1B9
:10325800080BCBF80401D6D137E708463DF080FECD
:10326800054600283FF472AFF2E61C460525002209
:10327800074B8FE71546019A1A6067E7AFF300809E
:10328800182D4454FB2119C000000840AAAAAA2AF4
:103298000000144056555555182D4454FB2119402B
:1032A800ABAAAAAA000000002DE9F04F2DED028B71
:1032B800002587B010F00104059540F0B6801F4640
:1032C800451005AB90462846224600940E46FFF767
:1032D800A7FE059B03F10C0A05EB450303EBD3732B
:1032E8005B100AEBC3030393002F00F0AD803B682B
:1032F800039A9342C0F0AD80039B3B60B8F1000F86
:1033080054D00020059908F10C021144C8E90021A5
:1033180001EBC501C8F8081005AB009031462846F6
:1033280005EBD579FFF77CFE4FEA6909002E43D0FB
:10333800012D35DD0FF2441BDBE900AB2846FDF714
:1033480059F906460F46D8F8085001342046FDF7CB
:1033580051F932463B46FDF7E1FA0022444BFCF7AF
:10336800FDFF52465B46FDF7AFF941EC100B41EC0F
:10337800180B00F0E1F951EC100BFDF73FFCB0EE33
:10338800480AF0EE680A286000F0AEFA51EC100B1B
:10339800FDF734FC4C4505F1080545F8040CD4DB71
:1033A800129B1BB1129B1A46039B1360404607B041
:1033B800BDEC028BBDE8F08F012DF1DD0FF2A80BFB
:1033C800DBE900AB2846FDF715F904460D46D8F8A9
:1033D800087001363046FDF70DF922462B46FDF7F9
:1033E8009DFA0022224BFCF7B9FF52465B46FDF7D7
:1033F8006BF941EC100B41EC180B00F09DF951EC06
:10340800100BFDF7FBFBB0EE480AF0EE680A3860D7
:1034180000F06AFA51EC100BFDF7F0FB4E4507F18E
:10342800080747F8040CD4DBBAE7A846114B242256
:103438001B680121DB68104840F068FF404607B070
:10344800BDEC028BBDE8F08F18463DF089FD804643
:1034580054E7A04640463A6007B0BDEC028BBDE891
:10346800F08F00BFAFF30080182D4454FB2109C032
:103478000000E03F682A002064340600182D4454F8
:10348800FB210940000000002DE9F0410F6988B0D8
:10349800002F73D0D1F814E0BEF1000F6ED00A6887
:1034A80084680546D2E9000302284FEA831604EB34
:1034B800831C24DDD368581C21D004EB831349688E
:1034C800A05D4E684FEA861814F8081004EB8616BB
:1034D800814216D192689001205C04EB82128842E6
:1034E80007D028466B6928499847012008B0BDE8ED
:1034F800F08101281FD1002008B0BDE8F081002329
:10350800DDE76E6940F04EFA034614F808001C46E1
:1035180040F048FA07461D4B284601931C4BCDE95D
:10352800024700931B4A40F2EF231B49B047012092
:1035380008B0BDE8F0819FED127B06A89EF8004018
:1035480061460190009628468DED067B00F078F8DC
:103558000028CBD1384605A99DED060B40F062FA4C
:10356800059B32465B427B6007F10C0300932146C2
:10357800284607F1080340F0B3FAB7E743F093FA97
:103588000000000000000000783806005C380600E3
:103598006C380600C03706004038060000000000FE
:1035A8002DE9F84F4FF0004323FA00F05BEC10AB25
:1035B80059EC118B14460D46FDF71CF84246064699
:1035C8000F464B4650465946FDF77EF802460B46D5
:1035D80030463946FDF778F815A3D3E900230646A7
:1035E8000F46FDF701FBA0B9804639463046002258
:1035F800114BFDF7F9FAC0B13046394600220023D5
:10360800FDF7CAFA40B1C5F80080C4F80080BDE8EB
:10361800F88F07A7D7E9006723462A463046394678
:1036280040F0CCF92368002BF1DA43F03CFA00BFF4
:103638000000C0FFFFFFDF410000F03F0000000076
:103648002DE9F0412DED028B82B0054691ED038AFC
:10365800D2ED038ADDF828807BB318EE100A1C46E9
:10366800FCF7DAFF064618EE900A0F46FCF7D4FF7F
:1036780002460B4630463946FDF726F80646E0680E
:103688000F46FCF7C9FF0B46024639463046FCF7A1
:1036980063FE0246D8F80C00164621F00047FCF7F6
:1036A800BBFF02460B4630463946FDF737F920A3E3
:1036B800D3E90023FDF784FA08B328EE288AB5EE8B
:1036C800C08AF1EE10FA28DB18EE100AFCF7A4FF06
:1036D8000446D8F80C000D46FCF79EFF02460B4640
:1036E80020462946FDF71AF902460B4600200B9999
:1036F800C1E9002302B0BDEC028BBDE8F0819A233A
:10370800074928466C69074A00910749A0470120E4
:1037180002B0BDEC028BBDE8F081A7230349F0E7B6
:10372800C03C0600443C0600E03A0600E43C0600C3
:103738007B14AE47E17A943F1FB553EC102B23F06E
:1037480000412548814206DC9FED211B05B05DF84C
:1037580004EB00F061BB2148814209DD10EE100A3C
:103768001946FCF7F9FD41EC100B05B05DF804FBB8
:10377800684600F045F900F0030001280BD0022844
:1037880016D0E0B99DED021B9DED000B00F044FB47
:1037980051EC100BE7E79DED021B9DED000B00F0CF
:1037A8004FFF10EE100A53EC102B03F10041DAE73B
:1037B8009DED021B9DED000B00F02EFBF1E79DED4A
:1037C800021B9DED000B012000F03AFFE0E700BF6F
:1037D8000000000000000000FB21E93FFFFFEF7F31
:1037E80051EC100B2DE9F041C1F30A570C4610EECD
:1037F800105A10EE108AA7F2FF36132E33DC002E73
:1038080014DA35A3D3E90023FCF7A8FD002200232E
:10381800FDF7EAF938B1002C58DA24F000431D43CB
:1038280001D000252E4C2146284626E02D4F374151
:1038380001EA0703034320D027A3D3E90023FCF7B9
:103848008DFD00220023FDF7CFF90028EBD0002CD6
:103858004FF00005BEBF4FF4801343FA06F6A419D3
:1038680024EA0704DFE7332E0BDDB6F5806F04D1B9
:1038780010EE102A0B46FCF771FD41EC100BBDE869
:10388800F081A7F213474FF0FF3323FA07F70742F7
:10389800F3D011A3D3E90023FCF760FD0022002335
:1038A800FDF7A2F90028BED0002C02DA142E03D1AD
:1038B800013425EA0705B6E70123C6F1340603FA01
:1038C80006F63544454538BFE418F2E700252C468E
:1038D800A9E700BFAFF300809C7500883CE4377E01
:1038E8000000F0BFFFFF0F001FB553EC102B23F0B3
:1038F80000412748814207DC00209FED231B05B0CB
:103908005DF804EB00F09CBE2248814209DD10EE10
:10391800100A1946FCF720FD41EC100B05B05DF8C4
:1039280004FB684600F06CF800F0030001280CD096
:10393800022811D0F0B901209DED021B9DED000B6E
:1039480000F07EFE51EC100BE6E79DED021B9DEDAD
:10395800000B00F061FAF5E79DED021B9DED000BF1
:10396800012000F06DFE10EE100A53EC102B03F14D
:103978000041D1E79DED021B9DED000B00F04CFAD4
:10398800F1E700BFAFF30080000000000000000076
:10399800FB21E93FFFFFEF7F1FB553EC102B23F00E
:1039A80000411548814207DC01209FED111B05B03D
:1039B8005DF804EB00F004BF1048814209DD10EE09
:1039C800100A1946FCF7C8FC41EC100B05B05DF86D
:1039D80004FB684600F014F8400000F002009DED7A
:1039E800021B9DED000BC0F1010000F0E9FEEDE7C0
:1039F8000000000000000000FB21E93FFFFFEF7F0F
:103A08002DE9F04F55EC104B25F00048CA4B824683
:103A180098452DED028B8BB0029508DC002200231F
:103A280080ED000BC0E902234FF0000B28E0C34BE8
:103A3800984578DC029B10EE100AC14E2946002BEF
:103A4800AFA3D3E9002339DDFCF786FCB045044673
:103A58000D461BD0ACA3D3E90023FCF77DFC02463E
:103A68000B4620462946CAE90023FCF775FCA6A3A5
:103A7800D3E900234FF0010BFCF76EFCCAE9020101
:103A880058460BB0BDEC028BBDE8F08FA0A3D3E97C
:103A98000023FCF761FC04460D469FA3D3E90023ED
:103AA800FCF75AFC02460B4620462946CAE9002381
:103AB800FCF752FC98A3D3E90023DBE7FCF74EFCA4
:103AC800B04504460D4616D08FA3D3E90023FCF772
:103AD80045FC02460B4620462946CAE90023FCF766
:103AE8003BFC89A3D3E90023FCF738FC4FF0FF3BEC
:103AF800CAE90201C4E786A3D3E90023FCF72EFC38
:103B080004460D4684A3D3E90023FCF727FC0246AC
:103B18000B4620462946CAE90023FCF71DFC7EA374
:103B2800D3E90023E0E7874B984500F3D98042F0BA
:103B3800A4FF10EE100A55EC104B79A3D3E900232B
:103B48002946FCF7C1FD00227F4BFCF707FCFDF777
:103B580063F98346FCF74EFD02460B4643EC182BEF
:103B680067A3D3E90023FCF7AFFD02460B462046C6
:103B78002946FCF7F1FB06460F4663A3D3E9002369
:103B880051EC180BFCF7A0FDBBF11F0F04460D46C6
:103B98000DDC0BF1FF326D4B53F82230434506D054
:103BA80022462B4630463946FCF7D6FB0FE02B461B
:103BB800224630463946FCF7CFFB4FEA2853039399
:103BC800C1F30A53C3EB1858B8F1100F02DCCAE965
:103BD800000139E04EA3D3E9002351EC180BFCF7A0
:103BE80073FD04460D4602460B4630463946FCF73F
:103BF800B3FB02460B468046894630463946FCF7F9
:103C0800ABFB22462B46FCF7A7FB04460D4642A316
:103C1800D3E9002351EC180BFCF756FD22462B463E
:103C2800FCF79AFB02460B4604460D4640464946B9
:103C3800FCF792FB039AC1F30A53D31A312B24DC05
:103C480046464F46CAE90001DAE900893046394656
:103C580042464B46FCF780FB2B462246FCF77CFB92
:103C6800029B002BCAE90201BFF60AAF09F1004323
:103C7800CAF80080CAF80800CAF8043001F1004305
:103C8800CAF80C30CBF1000BFAE627A3D3E90023DE
:103C980051EC180BFCF718FD04460D4602460B467E
:103CA80040464946FCF758FB02460B4606460F4677
:103CB80040464946FCF750FB22462B46FCF74CFB96
:103CC80004460D461AA3D3E9002351EC180BFCF760
:103CD800FBFC22462B46FCF73FFB04460D465FE7FC
:103CE8001B4B984536DD10EE102A2B4620462946F8
:103CF800FCF732FBCAE90201CAE9000194E600BFF9
:103D080000004054FB21F93F3163621A61B4D03D91
:103D18000000601A61B4D03D7370032E8A19A33B6A
:103D280083C8C96D305FE43F0000002E8A19A33BA9
:103D3800C14920259A837B39FB21E93F7BD9024081
:103D4800FB21F93FFB2139410000E03F083D060017
:103D5800FFFFEF7F4FEA285410EE100A10EE106AAA
:103D680004ADA4F21644A946A8EB04514FF0030889
:103D78000F46FDF751F8FCF73DFC02460B4630466E
:103D88003946CDE90423FCF7E7FA0022204BFCF77B
:103D98009BFC0F460646FDF73FF8FCF72BFC024656
:103DA8000B463046394600260027CDE90623FCF7A6
:103DB800D3FA0022164BFCF787FCCDE908013246FE
:103DC8003B46C346083D08F1FF38D5E90601FCF734
:103DD800E3FE0028F3D10F4B224651464846019393
:103DE800022300935B4600F0DFF8029B8346002B1A
:103DF800BFF646AEDAE9002101F10043CAE9002323
:103E0800DAE9022101F10043CAE902233AE700BFD7
:103E180000007041883D06002DE9F74F57EC106B04
:103E280027F00048B8F1795F8DED001B07DA10EE36
:103E3800100A3946FCF7F0FF002800F08880324667
:103E48003B4630463946FCF73FFC04460D46002207
:103E58004F4BFCF739FC82468B46204629463EA349
:103E6800D3E90023FCF730FC3DA3D3E90023FCF79A
:103E780075FA22462B46FCF727FC3BA3D3E900231F
:103E8800FCF76AFA22462B46FCF71EFC38A3D3E956
:103E98000023FCF763FA22462B46FCF715FC36A3F1
:103EA800D3E90023FCF758FA22462B46FCF70CFC12
:103EB80033A3D3E90023FCF751FA22462B46FCF73B
:103EC80003FC22462B46FCF7FFFB04460D46304612
:103ED8003946DDE90023FCF7F7FB0B460246294685
:103EE8002046FCF739FA2B4B06460F46984510DC5E
:103EF80002460B4650465946FCF72EFA02460B4638
:103F080000202549FCF728FA41EC100B03B0BDE866
:103F1800F08F224B002400201F4998452246D4BF29
:103F2800A8F500151E4D2B46FCF716FA22468046CA
:103F380089462B4650465946FCF70EFA32463B4610
:103F4800FCF70AFA02460B4640464946DAE79FED77
:103F58000E0BDBE7AFF30080D43888BEE9FAA8BDC2
:103F6800C4B1B4BD9EEE213EAD529C804F7E923EC0
:103F78009015CB19A001FA3E7751C1166CC1563F76
:103F88004C5555555555A53F000000000000F03F21
:103F98000000E03F3233D33F0000F03F0000E93F2C
:103FA8000000D23F000000002DE9F04F2DED028BFC
:103FB800ADF51B7D12F1140F4FF000050893A8BF53
:103FC800D41EC34BB8BF0024019122AEA6990B9012
:103FD80053F821300293089B03F1FF330693A4BFE3
:103FE800182394FBF3F46FF0170304FB033303EB7C
:103FF800020A029B069A03EB0208A71AA79B9FEDE9
:10400800B08B03EB8709454513DD22AA089B0DF504
:10401800E47B4FF0000802EBC3059FEDA98B029BE0
:1040280098452EDCDDF82C902F4600268DED048B6C
:104038001BE0EF4207D459F82500FCF7DBFA0135FD
:10404800E6E80201DFE751EC180BF8E7D7E90023AF
:10405800F9E802010136FCF737FB02460B46DDE9B9
:104068000401FCF77BF9CDE90401069B083F9E4259
:10407800ECDD08F1010808359DED047BABEC027B13
:10408800CDE7029B0EAA02EB83030D93A79B03EBDC
:104098008403029C0C93E3000DF13808A1460A93AF
:1040A8009AABC34603EBC40353E9286772AB03EB2F
:1040B800C405B9F1000FA5F1080577DC504647ECB7
:1040C800106B00F051FD00224FF07F5310EE100AE4
:1040D80057EC106B3946FCF7F7FA41EC100BFFF779
:1040E8007FFB00227B4B51EC100BFCF7EDFA0246EC
:1040F8000B4630463946FCF72FF90F460646FCF7C3
:104108008BFE0490FCF776FA02460B463046394699
:10411800FCF722F9BAF1000F06460F466DDD621E64
:104128000EABCAF11801049D53F8220040FA01F3BE
:104138001D448B40C01A0EAB049543F82200CAF107
:10414800170340FA03FBBBF1000F65DD049B002257
:104158006FF07F41013315460493944200F39C802D
:10416800BAF1000F07DDBAF1010F00F0BF80BAF114
:10417800020F00F0C580BBF1020F4DD132463B461D
:1041880000205549FCF7E8F806460F46002D43D0B5
:1041980050469FED4D0B00F0E7FC3046394653EC96
:1041A800102BFCF7D9F806460F4635E000224B4B9A
:1041B80030463946FCF788FA09F1FF39FCF72CFE3E
:1041C800FCF718FA02460B4643EC182B0022444B26
:1041D800FCF77AFA02460B4630463946FCF7BCF83B
:1041E800FCF71AFE4BF8040BD5E9002351EC180B29
:1041F800FCF7B4F806460F465BE706D1631E0EAA25
:1042080052F823004FEAE05B9DE70022354BFCF7AC
:10421800E1FC00283DD18346002200233046394680
:10422800FCF7BAFC002800F0BE80651E00222B4671
:1042380002998B426BDA002A00F087800EABAAF154
:10424800180A53F82530002B00F0AB805046EC00DC
:10425800AA469FED1D0B00F087FC9AAB03EBC50344
:10426800A3F1980857EC106BBAF1000F80F2D480D4
:104278002E469FED138B002EC0F2028172ABDFF841
:1042880068A04FF00008AF1B03EBC6098DED068B45
:10429800E8E04FF0020B59E7D8F8003055B923B1E0
:1042A800C3F18073C8F800300123013208F1040813
:1042B8001D4652E7CB1AC8F800302B46F5E700BF79
:1042C8000000000000000000000000000000F03FB7
:1042D800A83E0600000020400000F03F0000703EAD
:1042E800000070410000E03FC8870500621E0EAB69
:1042F80053F82230C3F316030EA941F822303AE7E7
:10430800621E0EAB53F82230C3F31503F4E70EA96F
:1043180051F82310013B0A438AE7013352F8041D80
:104328000029FAD00A9A9AA9E31804F101080A4464
:104338000493983A0A92089AA51822AA02EBC5058E
:10434800049B434504DA1C46A5E60D9A0123E5E7DC
:104358000C9B4FF000090026002753F82800FCF7B3
:1043680049F90B9BE5E802011C46AB46069B9945BB
:1043780006DD0A9B08F10108E3E802670A93DFE714
:104388007BE90223F4E80201FCF79EF902460B469A
:104398003046394609F10109FBF7E0FF06460F46AA
:1043A800E4E7013D4AE7CAF1000047EC106B00F072
:1043B800DBFB0022A04B10EE100A57EC106B3946BD
:1043C800FCF708FCF8B100229C4B30463946FCF754
:1043D8007BF9651CFCF720FD8046FCF70BF90022F1
:1043E800954B0AF1180AFCF76FF90B460246394655
:1043F8003046FBF7B1FFFCF70FFD0EAB43F8240086
:1044080043F8258022E730463946FCF705FD0EAB18
:10441800254643F8240019E70EAB53F82A000AF1A1
:10442800FF3AFCF7E7F832463B46FCF74DF9002225
:10443800824B68E9020130463946FCF745F90646E1
:104448000F4611E7F9E80223FAE8020108F101082A
:10445800FCF73AF902460B46DDE90601FBF77EFF59
:10446800CDE90601029B984501DCB845EADD4AAB77
:10447800013E9DED067B03EBC70787ED007BFAE65F
:10448800A69B022B0BDC002B35DC59D0049B03F0D8
:1044980007000DF51B7DBDEC028BBDE8F08FA69BD8
:1044A800032BF3D14AAB029523441C469A46069344
:1044B800029BAAF1080A002B69DCAA46BAF1010F8F
:1044C800A4F1080400F38380069C0020002108342E
:1044D800012D00F39B80DDE94A56DDE94C78BBF1FC
:1044E800000F40F09980019BC3E90056C3E90278A8
:1044F800C3E90401CAE708344AAB2E4600201C442D
:104508000021002E34DABBF1000F37D0024601F14A
:104518000043019C4CAEC4E90023012402460B462B
:10452800DDE94A01FBF718FFA5422ADABBF1000FC3
:1045380002D001F100431946019BC3E90201A5E736
:104548009AAB002000211C44A4F59C74002D09DAC4
:10455800BBF1000F02D001F100431946019BC3E9EA
:10456800000193E774E90223013DFBF7F7FEEDE74D
:1045780074E90223013EFBF7F1FEC2E702460B464F
:10458800C7E7F6E802230134FBF7E8FECCE7029B15
:10459800DAE90089DAE90267013B404632464946D2
:1045A80002933B46FBF7DAFE02460B46CDE90801CB
:1045B80040464946FBF7D0FE32463B46FBF7CEFE67
:1045C8009DED087BCAE902018AED007B70E7D4E91A
:1045D8000089D4E902674046494632463B46FBF724
:1045E800BDFE02460B460AF1FF3ACDE902014046FC
:1045F8004946FBF7B1FE32463B46FBF7AFFE9DED61
:10460800027BC4E9020184ED007B57E774E90223C9
:10461800013DFBF7A3FE5BE7019B06F10044019A0D
:104628001D605C609F6008F100431061D36001F178
:10463800004353612AE700BF000070410000703E4C
:104648002DE9F04F55EC104B25F000432DED048B70
:10465800B3F1795F83B0B0EE418AF0EE618A0190E0
:1046680006DA10EE100A2946FCF7D6FB002851D0CE
:1046780022462B4620462946FCF726F882468B46DA
:1046880002460B4620462946FCF71EF88046894616
:10469800504659463FA3D3E90023FCF715F83FA33A
:1046A800D3E90023FBF758FE52465B46FCF70CF8AB
:1046B8003CA3D3E90023FBF751FE52465B46FCF7C7
:1046C80003F83AA3D3E90023FBF746FE52465B46BC
:1046D800FBF7FAFF37A3D3E90023FBF73FFE019B63
:1046E80006460F46EBB902460B4650465946FBF7BD
:1046F800EBFF25A3D3E90023FBF72EFE42464B46EA
:10470800FBF7E2FF02460B4620462946FBF726FE4A
:1047180004460D4645EC104B03B0BDEC048BBDE8D8
:10472800F08F00221A4B51EC180BFBF7CDFF3246E5
:104738003B4641EC190B40464946FBF7C5FF02468C
:104748000B4651EC190BFBF707FE52465B46FBF78D
:10475800BBFF53EC182BFBF7FFFD06460F46404600
:10476800494609A3D3E90023FBF7AEFF02460B46EF
:1047780030463946FBF7F2FD02460B4620462946ED
:10478800FBF7EAFDC4E700BF495555555555C53FE8
:104798000000E03F7CD5CF5A3AD9E53DEB9C2B8A07
:1047A800E6E55A3E7DFEB157E31DC73ED561C11906
:1047B800A0012A3FA6F810111111813F0000000046
:1047C8002DE9F04F5BEC10AB2BF00047E04B0646B1
:1047D8009F422DED048B85B08DED001BCDF80CB0FC
:1047E80024DC10EE100A5946FCF716FB002848D1C5
:1047F800731C524613433B4312D14BEC10AB42F0AF
:104808003CF90020D34953EC102BFCF787F882467B
:104818008B464BEC10AB05B0BDEC048BBDE8F08FBC
:10482800012EF6D05B460020CB49EEE7CB4B9F42EA
:1048380027DD039B002B0ADA0BF1004310EE10AAC8
:10484800DDE900219B4601F10043CDE900235246F2
:104858005B469FA1D1E90001FBF77EFD04460D46AA
:10486800DDE900239CA1D1E90001FBF775FD224693
:104878002B46FBF773FD82468B469FED997B8DEDAA
:10488800007B52465B4650465946FBF71DFF804663
:10489800894602460B46FBF717FF04460D4642467B
:1048A8004B4650465946FBF70FFF8FA3D3E9002329
:1048B80041EC180B20462946FBF706FF8CA3D3E9E9
:1048C8000023FBF74BFD22462B46FBF7FDFE8AA390
:1048D800D3E90023FBF742FD22462B46FBF7F4FE03
:1048E80087A3D3E90023FBF739FD22462B46FBF7C4
:1048F800EBFE85A3D3E90023FBF730FD22462B46C8
:10490800FBF7E2FE82A3D3E90023FBF727FD42462B
:104918004B46FBF7D9FE80A3D3E9002341EC190BE2
:1049280020462946FBF7D0FE7DA3D3E90023FBF7F9
:1049380015FD22462B46FBF7C7FE7BA3D3E90023D0
:10494800FBF70CFD22462B46FBF7BEFE78A3D3E906
:104958000023FBF703FD22462B46FBF7B5FE76A3A3
:10496800D3E90023FBF7FAFC22462B46FBF7ACFE03
:1049780073A3D3E90023FBF7F1FC02460B4651EC85
:10498800190BFBF7EBFC53EC182BFBF79DFEDDE94D
:104998000023FBF7E3FC42464B46FBF795FEDDE9B7
:1049A8000023FBF7DBFC04460D4667A3D3E900238D
:1049B80051EC180BFBF788FE22462B46FBF7CEFC82
:1049C8000B46024641EC180B50465946FBF7C6FC0D
:1049D800624B04460D469F423EDD3046FBF70AFE19
:1049E8002246804689462B4620462946FBF76CFE20
:1049F80006460F4642464B4620462946FBF7AEFC84
:104A080002460B4630463946FBF788FF53EC182B15
:104A1800FBF7A2FC02460B4650465946FBF79CFCA6
:104A280002460B46FBF79AFC02460B4640464946AF
:104A3800FBF792FC039B04460D464FEAA37A0AF063
:104A4800020ACAF10100FBF7D5FD02460B462046D3
:104A58002946FBF739FEDAE6012E00F081800026B0
:104A68000F46894602460B4600203B49B046FBF7F5
:104A780055FF52465B46CDE90001DDE90045304669
:104A88003946FBF769FC02460B4651EC180BFBF75D
:104A980063FC32462B46FBF717FE424606460F4696
:104AA8002B4640464946FBF70FFE0022294BFBF7F1
:104AB80055FC02460B4630463946FBF74FFCDDE90C
:104AC8000023FBF701FE42462B46FBF747FC9EE618
:104AD800182D4454FB21E93F075C143326A6813C7A
:104AE8000000000000000000D47ABF74702AFB3E6A
:104AF800E9A7F0320FB8123F68108D1AF726303F39
:104B08001583E0FEC8DB573F93846EE9E326823FB6
:104B1800FE41B31BBAA1AB3F735360DBCB75F3BE49
:104B2800A69237A0887E143F0165F2F2D844433F2D
:104B3800280356C9226D6D3F37D60684F464963F24
:104B48007AFE10111111C13F635555555555D53F82
:104B5800FFFF2F3E0000F03F0000F0BF2794E53F25
:104B680082468B4655E600BF70B555EC104BC5F331
:104B78000A5206462B469AB925F00043234336D0FD
:104B8800394B2946002210EE100AFBF79DFD374BE2
:104B980004460D469E4210DA2BA3D3E900233AE0DF
:104BA80040F2FF718A420CD110EE102A20462946A5
:104BB800FBF7D4FB04460D4619E0C1F30A520B4635
:104BC800363A324440F2FE718A4208DD002D20A1B7
:104BD800D1E900011CDA20A1D1E9000118E0002A7E
:104BE80008DD23F0FF4323F4E00343EA025545ECD4
:104BF800104B70BD12F1350F19DA4CF250339E424A
:104C080005F000430ADD12A1D1E90001002BE2D131
:104C18000FA3D3E90023FBF757FDCBE70AA1D1E99E
:104C28000001002BB8D00EA1D1E90001B4E723F0B0
:104C3800FF433632204623F4E00343EA02510022C0
:104C48000B4BE8E7AFF3008059F3F8C21F6EA501DC
:104C58009C7500883CE4377E9C7500883CE437FEF0
:104C680059F3F8C21F6EA58100005043B03CFFFF06
:104C78000000903C000000002DE9F04F1F46002383
:104C8800044688464FF0000A4FF0000B2DED028BCA
:104C98009DB018939F4B13921B6818460593FCF719
:104CA80058FA0546CDF85C80179B1A782B2A4ED007
:104CB8003BD80D2A34D8082A34D8002A3ED00023FD
:104CC8000A93179E3378302B40F0B080737803F046
:104CD800DF03582B68D10A9B17A902972046019336
:104CE80018AB8D4A009319AB40F052FD10F007073E
:104CF800054605D0062F2CD10136002317960A93B6
:104D0800139B002B40F08E850A9BEBB152460BF1AA
:104D1800004343EC102B1DB0BDEC028BBDE8F08FB7
:104D2800202ACCD101331793BEE72D2AC7D10122FF
:104D38000A925A1C17925B78002BC2D1139BCDF8AC
:104D48005C80002B40F06C8552465B46E1E7002210
:104D5800EEE7189A3AB135211AA842F0C8FB18991B
:104D6800204640F0EBFF013F042F06D8DFE807F0AC
:104D78000A0314170A00DDE91AAB2807C0D54BF05F
:104D8800004BBDE7DDE91AA3199A23F4801302F258
:104D9800334243EA025BF0E7DFF880B1EDE76FF0FA
:104DA800004B4FF0FF3AE8E7179B5A1C17925B78C5
:104DB800302BF9D0002BA3D001234FF00009049326
:104DC8000A22179B4F46CDF81C900893179806782F
:104DD800A6F13003D9B209292AD92A46059942F001
:104DE8004BF8A0B3002032463D4603460590652A9D
:104DF80001D0452A18D11DB9049A02439ED0002536
:104E0800DDF85C8008F10102179298F801202B2A3E
:104E180075D02D2A7BD04FF0000CA2F13001092962
:104E280040F28280CDF85C8000269DE00023C4E734
:104E3800082F00F1010007F10107D4BF079902FB11
:104E480009391790DCBF02FB01330793BEE7179BB4
:104E58005A1917925A5D002F36D03D460590A2F197
:104E68003003092B12D90123C1E7179B01305A1CC3
:104E780017925A78302AF8D0A2F13103082B00F2A1
:104E8800D68405900020179B05460893303A00F118
:104E9800010313D0059900EB050E19442B46059123
:104EA8000A21734512D12B180135082B05441CDC47
:104EB80007990A2303FB012307930023179A18462F
:104EC800511C17915278CAE73846D3E7082B04DCFF
:104ED800079E4E4307960133E3E703F1010CBCF14B
:104EE800100FD8BF01FB09F9F5E7102DDCBF0A2325
:104EF80003FB0929E1E70023059301237CE74FF031
:104F0800000C08F10202179298F8022085E74FF08A
:104F1800010CF6E7443F0600BC3E06000000F07FA7
:104F2800179A511C17915278302AF9D0A2F1310101
:104F380008293FF679AFA2F1300E179A0692179A10
:104F4800511C17915278A2F13006092E37D9069EC6
:104F5800891B44F61F66082902DC7645A8BF7646F9
:104F6800BCF1000F00D07642002D4DD104990143C9
:104F78007FF4C6AE002B7FF4E1AE692A27D024DC8B
:104F8800492A24D04E2A7FF4D9AE9F4917A842F067
:104F980029F900283FF4D2AE179B1B78282B2DD176
:104FA8001AAA9A4917A842F031F9052826D11B9B5D
:104FB800DDF868A043F0FF4B4BF4E00BA0E60A21B4
:104FC80001FB0E2EAEF1300EB9E76E2ADBE79049F1
:104FD80017A842F007F900283FF4B0AE179B17A8AE
:104FE8008C49013B179342F0FDF810B9179B013328
:104FF8001793DFF830B24FF0000A81E6864801F0D7
:105008002BFA5BEC10AB7BE6059B002F08BF2F4605
:10501800102D0798A6EB0303A846A8BF4FF0100869
:105028000693FBF7D7FA092D82468B4613DD7B4B97
:1050380003EBC80353E91223FBF746FB82468B4672
:105048004846FBF7C7FA02460B4650465946FBF757
:1050580085F982468B460F2D38DC069B002B3FF4E2
:105068004FAE24DD162B0BDC6C49524601EBC30115
:105078005B46D1E90001FBF727FB82468B463FE6FA
:10508800C5F12503069A934220DBC5F10F05634C51
:1050980052465B4604EBC501D1E90001FBF714FB5E
:1050A800069B5D1B04EBC504D4E90023E3E7069BDC
:1050B80016330BDB059B504659469E1B574B03EB9B
:1050C800C606D6E90023FBF729FCD6E7A5EB0808B6
:1050D800069B9844B8F1000F74DD18F00F030AD04E
:1050E8004E49524601EBC3015B46D1E90001FBF78B
:1050F800EBFA82468B4638F00F084FD0B8F59A7F06
:1051080022DD00252E46079505952223DFF814B1E8
:105118004FF0000A2360079B002B3FF4F1AD18996C
:10512800204640F00BFE0599204640F007FE314628
:10513800204640F003FE0799204640F0FFFD29462F
:10514800204640F0FBFDDBE5354B4FEA281850467A
:105158005946049300239946B8F1010F21DC0BB19D
:1051680082468B462E4BABF1547B524603EBC90962
:105178005B46D9E90001FBF7A7FA2A4B0A468246A3
:105188000B4029498B42BCD8A1F580118B4286BFC0
:10519800DFF898B04FF0FF3A02F1547B00230493F4
:1051A80083E018F0010F05D0049BD3E90023FBF737
:1051B8008BFA0123049A09F101094FEA68080832B9
:1051C8000492C9E7EAD0C8F1000818F00F020AD023
:1051D800124B5046594603EBC203D3E90023FBF7B1
:1051E8009DFB82468B465FEA2818D7D0B8F11F0F7F
:1051F8001EDD00252E460795059522234FF0000A4F
:105208004FF0000B236086E743410600D03E0600BE
:105218003B4106006D410600234006005888050002
:10522800308805000000F07F0000A07CFFFFEF7FC2
:1052380018F0100350465946DFF8A89318BF6A23A0
:105248000493002318F0010F04D0D9E90023FBF7D9
:105258003BFA01235FEA680809F10809F2D10BB1AA
:1052680082468B46049BC3B1CBF30A525946C2F11E
:105278006B03002B11DD1F2B40F32181342B4FF0E2
:10528800000ADBBFC2F14B024FF0FF334FF05C7BEB
:1052980003FA02F2D8BF02EA010B002200235046AB
:1052A8005946FBF779FC0028A3D1079B3A46089991
:1052B800204600932B4640F0ABFD079000283FF4B2
:1052C80020AF059B00259E1B069B002BB4BF3346D1
:1052D80000232E460C93069B23EAE3731293079B45
:1052E8002046596840F0EAFC059000283FF40DAFCD
:1052F800079B0C301A6903F10C010232920041F04D
:10530800FEFB1AAA19A920464BEC10AB41F05CF839
:1053180018904BEC18AB00283FF4F7AE012120465B
:1053280040F0C0FD064600283FF4EFAE199B0499F3
:10533800002BA3EB0108A9BF0C9A129A03EB0209F0
:10534800129FB8BFD71A1A9AA14B9044B8BFDDF87C
:105358003090C2F1360208F1FF38984580F2C380D8
:10536800A3EB080301211F2BA2EB030200F3AE807D
:1053780001FA03F30D930023089309EB0208049B39
:105388001744C1451F444B46A8BF4346BB42A8BF6C
:105398003B46002BC2BFA8EB0308FF1AA9EB030981
:1053A8000C9B002B17DD31461A46204640F038FE8C
:1053B800064600283FF4A9AE0146189A204640F058
:1053C80087FD0B9000283FF4A0AE1899204640F0C6
:1053D800B5FC0B9B1893B8F1000F00F38980069B6E
:1053E800002B08DD129A2046059940F019FE059019
:1053F80000283FF48AAE002F08DD3A46059920467A
:1054080040F068FE059000283FF47FAEB9F1000F28
:1054180008DD31464A46204640F05CFE0646002834
:105428003FF473AE059A2046189940F0C3FE05462E
:1054380000283FF46AAEC36831460B930023C3606B
:1054480042F006F800285DDA0B9B53EA0A037FD185
:10545800CBF31303002B7BD12BF000431B0D1B0553
:10546800B3F1D66F74D96B6913B92B69012B6FDD52
:1054780029460122204640F02DFE3146054641F0DE
:10548800E7FF002864DD04995B46524A00297FD073
:1054980002EA0B01B1F1D66F7ADCB1F15C7F7FF7DC
:1054A800ACAE4D4B504659460022FBF70DF90B4662
:1054B80082468B46034304BF222323602FE64FF026
:1054C800FF3202FA03F303EA0A0AE6E6C8F17F4864
:1054D8000D9108F57F0808F57B4808F1E20801FA04
:1054E80008F3089349E70023089301230D9344E741
:1054F80042461899204640F0EDFD189000287FF4A8
:105508006EAF02E65F466FD10B9ACBF3130342B33B
:10551800324A934228D1049B5146EBB12D4B4FF0B0
:10552800FF323B40B3F1D46F19D81B0DC3F16B03A5
:1055380002FA03F3994217D1294B9F4202D1013154
:105548003FF4E3AD234B4FF0000A3B4003F5801BCB
:10555800049B002BA5D1E2E54FF0FF33EAE71346A1
:10556800E8E753EA0A038ED0089BDBB13B42EFD051
:105578000B9B5046049A5946C3B141F0B0FC024611
:105588000B4651EC180BFAF7E9FE82468B46DFE72B
:1055980013404FF0FF3AA3F580136FEA135B6FEAED
:1055A8000B5BD5E70D9B13EA0A0FE0E741F097FC88
:1055B80002460B4651EC180BFAF7CEFE00220023E8
:1055C80082468B46FBF7E8FA0028C1D015E600BFF3
:1055D80002FCFFFF0000F07F00005039FFFF0F00C2
:1055E800FFFFEF7F088805003146284641F04CFF51
:1055F80000224FF0804310EE100A59EC108B4946F8
:10560800FBF7DEFA00287AD00B9B002B4AD0002249
:10561800934B4FF00008DFF84892CDE90823914BEF
:105628003B400D930D9A904B9A4240F0B080A7F101
:10563800547BDDE908014BEC10ABCDE9080140F0E3
:1056480049FEDDE9080153EC102BFBF73DF8524603
:105658005B46FAF783FE0B4682498246834A194025
:10566800914260D918EE903A02F15472934204D1F3
:1056780018EE103A01333FF448ADDFF8FCB14FF0B3
:10568800FF3A1899204640F059FB0599204640F00A
:1056980055FB3146204640F051FB2946204640F054
:1056A8004DFB1CE6BAF1000F1BD1CBF31303F3B982
:1056B80000226B4B40464946FBF778FAD0B9404682
:1056C800494600226A4BFAF7FFFF8046894609F1EE
:1056D8000043CDF850801593DDE91423CDE9082364
:1056E8009DE7BAF1010F02D1002F3FF486AD0022E9
:1056F800604B8EE74FF00008DFF87491E7E75C4BEA
:10570800404649460022FAF7DFFF0B9B8046894650
:1057180033B901F100430E900F93DDE90E23DDE765
:10572800CDE90E89F9E703F1547B049B002BA8D13E
:105738002BF000430D9A1B0D1B059A42A1D1404640
:105748004946FBF791FBFAF791FF02460B464046A4
:105758004946FAF701FECBF313030B9A804643EA56
:105768000A038946134355D035A3D3E90023FBF731
:105778001DFA00287FF4D3AC4046494632A3D3E94A
:105788000023FBF731FA00283FF47BAFC7E4049B02
:1057980033B30D9BB3F1D46F22D8404649462CA3AE
:1057A800D3E90023FBF70CFAA0B149464046FBF7C2
:1057B800FDFA012838BF0120FAF70CFF0B9B804641
:1057C800894623BB01F1004310901193DDE91023B2
:1057D800CDE90823099B0D9A03F1D6639B1A099317
:1057E800B0EE480AF0EE680ADDE90801CDE90801E3
:1057F80040F070FDDDE9080153EC102BFAF764FF67
:1058080053EC182BFAF7AAFD82468B468DE7CDE9B3
:105818001089DBE710A3D3E90023FBF7C7F9B2E748
:1058280000230A93179B139A1360FFF76DBA652A32
:105838003FF461AB452A3FF45EAB0123FFF796BB0B
:105848009535A094FFFFDF3F35E5AF350000E03F19
:105858000000C0FFFFFFDF419535A094FFFFCF3F59
:105868000000F03F0000F07F0000E07FFFFF9F7C1A
:105878000000E03F0000F0BFFFFFEF7F00000000E6
:105888002DE9F04F456A044610EE10AA2DED048B61
:1058980093B057EC106BDDF88080BB4606910992F7
:1058A8000C9375B910203EF03FFD0246606220B9A6
:1058B800A74BEA21A7483EF08BFCC0E901550560DB
:1058C800C560636A196851B15A680123204693403C
:1058D8004A608B6040F032FA636A00221A603B1E0D
:1058E800ADBF0023012223F0004BC8F800309A4BCB
:1058F800B8BFC8F8002033EA0B031BD142F20F737C
:105908000C9A1360CBF31303334300F08F85219B6C
:1059180063B9924B22E0924B01930833219A1360AA
:10592800019813B0BDEC048BBDE8F08F8B4B01934D
:105938000333F3E70022002350465946FBF72CF9BE
:1059480080464BEC19AB58B101230C9A1360219B8C
:10595800002B00F0688583481860431E0193DFE739
:10596800CBF30A5510AA11A920464BEC10AB40F016
:105978002BFD08EE100A002D00F0828019EE903AF7
:105988005646A5F2FF35CDF83880C3F3130343F02C
:105998007F5747F440170022734B30463946FAF7D1
:1059A800DBFC65A3D3E90023FAF78EFE64A3D3E9F1
:1059B8000023FAF7D3FC06460F462846FAF71AFEE4
:1059C80061A3D3E90023FAF77FFE02460B4630466F
:1059D8003946FAF7C3FC06460F46FBF71DFA0022C4
:1059E8000090002330463946FBF7E0F850B10098A4
:1059F800FAF700FE32463B46FBF7CEF810B9009B9B
:105A0800013B0093009B162B59D8009A574B03EB88
:105A1800C20351EC190BD3E90023FBF7C7F80028A0
:105A28004FD0009B013B009300230B93109B5D1B01
:105A38006B1E059349BFC5F101030023049300239E
:105A480054BF04930593009B002B3CDB059B009AF5
:105A580013440A92059300230793069B092B00F22F
:105A68008980052BC5BF043B002501250693069BAD
:105A7800023B032B00F28980DFE803F02E3B395A02
:105A8800DDE910531D4405F23243202BC6BFC3F194
:105A9800400305F21240C3F1200305F1FF35C5BFED
:105AA8000BFA03F326FA00F006FA03F01843FAF7A4
:105AB80091FD01230646A1F1F8770E936BE70123C8
:105AC800B3E70B90B2E7049B009A9B1A04935342E6
:105AD800079300230A93C0E700230893099B002B30
:105AE80056DC01231A46CDE9023309920CE0012362
:105AF800F3E70023099A0893009B134402930133A8
:105B0800012B0393B8BF01230022606A426004227C
:105B180002F1140641689E423ED9204640F0CEF874
:105B2800019000283CD1124B02464FF4D571C1E6D2
:105B38000123DFE7AFF3008061436F63A787D23F9C
:105B4800B3C8608B288AC63FFB799F501344D33F64
:105B5800774106008E4106000000F07F7341060081
:105B68006A410600474106000000F83F58880500D2
:105B78000242060001250023089506934FF0FF33E3
:105B88000022CDE902331223AFE701230893F5E79A
:105B9800099BCDE90233B7E7013152004160B7E70D
:105BA800636A019A1A60039B0E2B00F29D80002DF8
:105BB80000F09A80009B002B32DD03F00F03B64AF9
:105BC80002EBC303D3E90089009BD8054FEA2317EA
:105BD80016D5B24B07F00F070325D3E9082351EC7C
:105BE800190BFAF79BFE82468B46AC4E57B94246D4
:105BF8004B4650465946FAF791FE82468B4628E0B6
:105C08000225F2E7F90708D5404649460135D6E9A5
:105C18000023FAF759FD804689467F100836E5E7E4
:105C280000F09B80009B02259C4F5E429A4B06F039
:105C38000F02361103EBC20351EC190BD3E9002311
:105C4800FAF742FD002382468B46002E7AD1002BBC
:105C5800D3D10B9B002B00F082800022904B504642
:105C68005946FAF7A3FF002879D0039B002B76D07A
:105C7800029B002B36DD009B5046594600225F1ED2
:105C8800884BFAF721FD013582468B46029E28464D
:105C9800D046FAF7AFFC52465B46D946FAF714FDF0
:105CA8000022814BFAF75AFB8246A1F1507B002E65
:105CB80058D100227D4B40464946FAF74DFB5246E3
:105CC8005B4680468946FAF78FFF002840F09382AA
