:020000040100F9
:1088000030970021D5CA02019F4E0301A9CA020177
:10881000A9CA0201A9CA0201A9CA020100000000F6
:108820000000000000000000000000007DC7020101
:10883000A9CA02010000000025C70201A9CA02015D
:10884000FDC70201FDC70201FDC70201FDC702010C
:10885000FDC70201FDC70201FDC70201FDC70201FC
:10886000E7520301FDC70201FDC70201FDC7020176
:10887000B7520301FDC70201FDC70201FDC7020196
:10888000FDC70201D1520301FDC70201FDC702016C
:10889000FDC70201FDC70201FDC70201FDC70201BC
:1088A000FDC70201FDC70201FDC70201FDC70201AC
:1088B000FDC70201FDC7020100000000000000002A
:1088C00000000000000000000000000000000000A8
:1088D0000000000000000000000000000000000098
:1088E0000000000000000000000000000000000088
:1088F0000000000000000000000000000000000078
:108900000000000000000000000000000000000067
:108910000000000000000000000000000000000057
:108920000000000000000000000000000000000047
:108930000000000000000000000000000000000037
:108940000000000000000000000000000000000027
:108950000000000000000000000000000000000017
:108960000000000000000000000000000000000007
:1089700000000000000000000000000000000000F7
:1089800000000000000000000000000000000000E7
:1089900000000000000000000000000000000000D7
:1089A00000000000000000000000000000000000C7
:1089B00000000000000000000000000000000000B7
:1089C00000000000000000000000000000000000A7
:1089D0000000000000000000000000000000000097
:1089E0000000000000000000000000000000000087
:1089F0000000000000000000000000000000000077
:108A0000DEE61E284CBBCE8F023500003C00000085
:108A100064010300010000000088000100880001DB
:108A2000FFFF0291000000000000000000000000B5
:108A300000000000000000000000000053B94AB927
:108A4000002908BF00281CBF4FF0FF314FF0FF3056
:108A500000F00CB8ADF1080C6DE904CE1EF01EFC60
:108A6000DDF804E0DDE9022304B07047704700BF81
:108A70002DE9F00791E8F807B2E802105B1854EB13
:108A80000C04B2E802104D4156EB0C06B2E802109D
:108A90004F4158EB0C08B2E8021059EB01095AEBB0
:108AA0000C0A80E8F80780410130BDE8F007704704
:108AB0002DE9F00791E8F807B2E802105B1A74EBB1
:108AC0000C04B2E802108D4176EB0C06B2E80210FD
:108AD0008F4178EB0C08B2E8021079EB01097AEBD0
:108AE0000C0A80E8F80780414042BDE8F007704773
:108AF0002DE9F007524290E87800B1E8800717406E
:108B0000DB1918EA020854EB080419EA020955EBCC
:108B100009051AEA020A56EB0A0678C090E87800BE
:108B2000B1E8800717407B4118EA020854EB0804BB
:108B300019EA020955EB09051AEA020A56EB0A0678
:108B400078C080410130BDE8F00770472DE9F0079B
:108B5000524290E87800B1E880071740DB1B18EA22
:108B6000020874EB080419EA020975EB09051AEA10
:108B7000020A76EB0A0678C090E87800B1E8800730
:108B80001740BB4118EA020874EB080419EA02090D
:108B900075EB09051AEA020A76EB0A0678C08041ED
:108BA0004042BDE8F00770472DE9F00152424FF016
:108BB000040890E8300091E8C000A31B1340E41AB9
:108BC000F618EB1B1340ED1AFF1830C0C0C1B8F106
:108BD0000108EED1BDE8F001704700BF00B592E892
:108BE000DC072DE9DC07B1E8805702B4A7FB02518E
:108BF0000A95A8FB020B09180020E7FB03105BEBAA
:108C0000000B00204041E9FB02B00B91A8FB03518F
:108C1000401800214941EAFB02011BEB050B00252E
:108C2000E7FB04B568410025E7FB0605694100251F
:108C30006D41E8FB0615CDF830B0A9FB03B68919E4
:108C40000026EAFB0316754100267641ECFB03562D
:108C500010EB0B005FF0000BE8FB040B51EB0B017A
:108C60005FF0000BE9FB041B55EB0B055FF0000BFD
:108C7000EAFB045B56EB0B065FF0000B5BEB0B0BA8
:108C8000ECFB046B0D90ACFB0230059C2D18002012
:108C9000EEFB025046410020E9FB04605BEB000B59
:108CA00000204041EAFB04B05B180021E7FB0431DF
:108CB0004D410021E8FB0451069C4E410021E8FB98
:108CC00004615BEB010B0021E9FB04B14841002189
:108CD0004941EAFB04010E93A7FB0432079CB61836
:108CE0000022E7FB04625BEB020B0022E8FB04B20C
:108CF00050410022E9FB0402514100225241EAFBAB
:108D00000412049CED180023E9FB04535E41002388
:108D1000EAFB0463089C5BEB030B0023E7FB04B353
:108D200058410023E8FB040359410023E9FB0413E5
:108D30005A4100235B41EAFB04230F955DF8049B35
:108D400099E80006DDF80080A9FB08541BEB040B32
:108D50000024EAFB08B4DDF8108060410024ECFB3D
:108D6000080461410024EEFB081462410024E9FB81
:108D70000824634100246441EAFB0834DDF80480E0
:108D800076190025EEFB08655BEB050B0025E9FB7A
:108D900008B568410025EAFB0805DDF81480694143
:108DA0000025ECFB08156A410025EEFB08256B4108
:108DB0000025E9FB08356C4100256D41EAFB0845BB
:108DC0000F96DDF80880AEFB087680190026E9FBD7
:108DD000080671410026EAFB0816DDF8188072418A
:108DE0000026ECFB082673410026EEFB0836744192
:108DF0000026E9FB0846754100267641EAFB085645
:108E0000DDF80C801BEB070B0027ECFB08B7784163
:108E10000027EEFB080779410027E9FB08177A4194
:108E20000027EAFB0827DDF81C807B410027ECFBCC
:108E300008377C410027EEFB08477D410027E9FB0E
:108E400008577E4100277F41EAFB086708B000BD54
:108E50002DE9F14F87B0FFF7C1FEDDF81C8008F166
:108E6000200888E8FF00FFBC87E87F08BDE8F08F96
:108E700000B591E84C57A2FB02410194A2FB0345C7
:108E800024190020E2FB06506D417F4164180294D2
:108E90000021E2FB0801A3FB034B6541039500247D
:108EA000E3FB060440417F41091900246441E2FBD1
:108EB0000914FF0750EB0B0004900025E2FB0A4564
:108EC0005FF0000BE3FB081B49415FEA370714EB37
:108ED0000B045FF0000BE3FB094B55EB0B055FF058
:108EE000000B5BEB0B0BE2FB0C5BFF0F0020E2FBCC
:108EF0000EB000225141E6FB061205910021E6FB6F
:108F0000084164417F416D180021E3FB0A515BEB8E
:108F1000010B0021E3FB0CB1484100214941E3FB77
:108F20000E010023E6FB09531BEB030B0023E6FBBA
:108F30000AB358410023E6FB0C03594100235B416F
:108F4000E6FB0E13FF07544106946D417F41A8FBD9
:108F50000826554107950022E8FB09B25BEB0B0B95
:108F60007F4180180022E8FB0A0251410022E8FB01
:108F70000C125A4100235B41E8FB0E230024E9FB5D
:108F80000E340025E9FB0A1552190025E9FB0C25D2
:108F90006B410025EAFB0C356C4100256D41EAFB75
:108FA0000E45FF075BEB060B0026ECFB0E5640411F
:108FB000494152415B4164416D417641AEFB0EE84F
:108FC00048F100087F00A9FB0979784151EB0901BC
:108FD000AAFB0A7A7A4153EB0A03ACFB0C7C7C4176
:108FE00055EB0C0556EB0E0648F1000700BD00BF1F
:108FF0002DE9F14F87B0FFF73BFFDDF81C8008F14A
:10900000200888E8FF00FFBC87E87F08BDE8F08FF4
:1090100030B44FF0000310F8014B11F8015B013A36
:1090200084EA050443EA0403F5D1A3F101034FEAFE
:10903000D37030BC704700BF4FF0000310F8012B15
:10904000013943EA0203F9D1A3F101034FEAD370D6
:10905000704700BF30B411F8014B12F8015B6C404F
:1090600000F8014B013BF6D130BC70472DE9F00709
:1090700091E8F807B2E802105B1854EB0C04B2E870
:1090800002104D4156EB0C06B2E802104F4158EB6E
:109090000C08B2E8021059EB01095AEB0C0A89419D
:1090A000B3F1FF3374F1FF3475F1FF3576F100064B
:1090B00077F1000778F1000879F101097AF1FF3AB8
:1090C00051F100015B184C414D4156F1000657F13A
:1090D000000758F1000859EBD1795AEB010A80E8F2
:1090E000F807BDE8F00770472DE9F00791E8F807A9
:1090F000B2E802105B1A74EB0C04B2E802108D4166
:1091000076EB0C06B2E802108F4178EB0C08B2E85F
:10911000021079EB01097AEB0C0A89415B184C418A
:109120004D4156F1000657F1000758F1000859EB80
:10913000D1795AEB010A80E8F807BDE8F0077047DB
:1091400018EB040859EB05095AEB060A5BEB070B11
:109150005FF0000C4CF1000C18EB050859EB060908
:109160005AEB070A5BEB070B50EB0C005FF0000CAF
:1091700051EB0C0152EB0C0263414CF1000CB8EBCB
:10918000070879F100097AF1000A7BEB040BA8418A
:10919000B141A241B3416CF1000CBBEB050BB041F6
:1091A000B941AA41BB416CF1000C6FEAEC74B8EB19
:1091B000040879EB04097AEB040A7BF1000B70F1E7
:1091C000000071F1000172EBD472A3416CF1000C4C
:1091D00018EBEC7859EBEC795AEBEC7A5BF1000B7D
:1091E00050F1000451F1000552EBDC7653EBEC77C3
:1091F0004CF1000C18EBEC7059EBEC715AEBEC7283
:109200005BF1000354F1000455F1000556EBDC76E8
:1092100057EBEC77704700BF2DE9F14F87B0FFF7B0
:10922000DDFCDDF81080DDF81490DDF818A0FFF704
:1092300087FFBDE8000FFFF783FF03B05DF8048BE5
:1092400088E8FF00BDE8F08F2DE9F14F87B0FFF708
:109250000FFEDDF81080DDF81490DDF818A0FFF7A0
:109260006FFFBDE8000FFFF76BFF03B05DF8048BE5
:1092700088E8FF00BDE8F08F014B187D704700BF04
:10928000C8060021042810B511D883B104280CBFEA
:1092900010242824A1420AD2064C54F8200018B108
:1092A00041568A42A8BF0A4600201A7010BD6FF0CE
:1092B0001500FBE7C8060021022807DC10F1270F84
:1092C00006DB2830044B40B2185670470320704725
:1092D0006FF02700704700BF74620301014B1879DB
:1092E000704700BFE4060021044B1A79824283BF15
:1092F0001B68302202FB003000207047E40600218A
:109300002DE9F041144682B0884605460DF103026E
:1093100001A9E08902F0E4FC03F078FA02F00CFD08
:10932000264B93F82D20202A14D0DA68073222F039
:109330007F42AA42D4E900132260A3EB0103134445
:1093400023F07F43636002D2A3680133A36002B0BD
:10935000BDE8F081E389074605F10B0653B9B8F182
:10936000000F04D10198B84201D2381A064426F001
:109370007F42DEE703F00AFE0028F0D103F0CEFBC7
:1093800040F2563398420CD040F2F55398420ED03A
:10939000B0F5C67FE3D105F11806B8F1000FE6D1AC
:1093A000E0E705F12706B8F1000FE0D1DAE705F1B3
:1093B0003D06B8F1000FDAD1D4E700BFEC0600217A
:1093C00010B51D4C94F82C3003EB4301214491F867
:1093D0002020202A2BD0DBB202EB431304EB430303
:1093E00093F8310081F82000C2EBC2014FF0FF0C6E
:1093F000002004EB810184F829C04FF0020C84F8AE
:109400002D2091F8C82084F8280083F830C0A07778
:1094100032B1D4F830344BB10020BDE810401847C9
:1094200004F0B4F8D4F83034002BF5D110BD4FF46B
:109430004B71702003F05EFEEC0600212DE9F84F21
:109440003D4E96F82CB00BEB4B03334493F8214080
:10945000202C58D05FFA8BF5DFF8E0804FEA4B0BF9
:10946000DFF8DC9004EB45136F0106EB430393F840
:109470003030013B052B59D8DFE803F00358584B37
:109480004E034FF0070AB8F1000F01D000E000BF13
:10949000EFF3108272B65D443B19354406EB43038B
:1094A00095F8221093F83130A14285F821302CD064
:1094B0002AB9B9F1000F01D000E000BF62B63B1934
:1094C00006EB430393F830204AB3062A27D0032A39
:1094D00025D0052A23D0012283F83020C4EBC40410
:1094E000514606EB8404D4E92C30984796F82CB00A
:1094F0000BEB4B035FFA8BF533444FEA4B0B93F8BE
:109500002140202CAED1BDE8F88F202385F82230F1
:10951000CEE74FF0020AB6E74FF0030AB3E727445D
:10952000012306EB470787F83030D7E740F6A8015C
:10953000702003F0DFFD00BFEC06002100000000FA
:10954000000000002DE9F04F154697B00446049145
:1095500002F03AFE824603F059F9C5EBC502A84D68
:1095600006460120930005F1B00105EB820CD5F809
:10957000342408330DF1400E10600CF1B80CCA18F9
:10958000CF580396536892F80C80B2F80E90079368
:10959000CDF82480BCE80F00AEE80F00DCF8003006
:1095A0003846CEF8003002F08DFB09F10103954AF0
:1095B00043449042034400F25F82934200F3EF8001
:1095C000002BC0F2CE8005932B7F02936B7F089314
:1095D000B9F1000F40F08D80CDF8049003F09EFAB1
:1095E00040F25633984200F0928040F2F553984290
:1095F00000F0E080B0F5C67F00F0D4804FF00308A3
:109600004FF0000B4346CDF818B04E4500F289806C
:10961000019839460022002840F0A180029B002BCF
:1096200000F07B814FF0020B4FF005085E46434689
:10963000BAF1807F0BD0A7EB0A000002FF2806DDFD
:10964000019B002B40F071813346D846544621F0EF
:109650007F414E1E26F07F46301B000248BFFF3080
:10966000B8EB202F00F38180002A18BF0F4602F0CC
:10967000B1FD301A000248BFFF30041203F04EFA69
:1096800040F25633984200F04E8140F2F553984232
:1096900000F0AA80B0F5C67F14BF0B2318239C42AC
:1096A00080F2A680049B012B00F05381019B03F004
:1096B0000104BAF1807F08BF44F00104002C00F0DF
:1096C00056810024304602F0BBFBBB1B23F07F43D6
:1096D000013BB3F5000F07D2079B9B1B23F07F4391
:1096E000B3F5000F40F294800024204617B0BDE887
:1096F000F08F95F82A30002B00F03281002301937F
:1097000003F00CFA40F2563398427FF46EAF4FF0FC
:109710001C0B4FF01F084E454346CDF818B07FF69E
:1097200077AF05990136374A8E1B914200F2A4812A
:10973000964200F33B81002EC0F2088130460DF1C5
:1097400033020DA90A9302F0CBFA0D9A0198BA1AC6
:109750000A9B22F07F42B91A00283FF45FAF5E46B1
:1097600066E7294A134405932EE79AB3089949B34B
:10977000019A1AB9029A0AB1A3F1020800231A4603
:10978000029303937E1EB21A22F07F46341B2402FA
:1097900048BFFF34B8EB242F7FF769AFA4E71B4A1B
:1097A000134410E74FF00D0B4FF01008CDF818B030
:1097B00043462AE74FF0320B4FF03508CDF818B08A
:1097C000434622E7CDE90A2303F030F8DDE90A2316
:1097D0000028CDD001990029D4D102980028D1D0F9
:1097E000A3F102080291CDE73D239C42FFF65AAF58
:1097F000B9F10004304618BF012402F021FB64E7F0
:10980000EC060021FF7F841E0080841E00807BE127
:10981000304602F057FA059AA94BA2EB000A9A4586
:10982000C0F09280801A9842C0F0EB80A54B9A4518
:1098300000F28680984240F23D81DFF88C82A8EBEE
:109840000008C246AB7F3BB9039B4B4538BF4B4634
:109850001E33434580F2DC80049B012B05D002209F
:1098600002F09CFD012002F099FD039B9945C0F098
:10987000898000F2D28059EA030040F016815146F7
:1098800002F0D0FC002800F0868095F82BA0BAF1F9
:10989000000F00F0D680002C40F09D8095F82A3013
:1098A000002B00F0D58095F82B302BB1052002F06D
:1098B00075FD002385F82B30A8EB09011939002923
:1098C00040F3E980032002F0ADFC0446002800F0DC
:1098D000DD80099B0EAED5F834248DF84C30029B08
:1098E000ADF84E908DF85430089B10978DF8553098
:1098F000079B764D1193002313608DF856300E931D
:109900004FF0FF330F930FCE0FC596E80F0085E899
:109910000F00204617B0BDE8F08F4FF003081E4639
:109920009B46434684E62723B9E695F82B30002B67
:109930003FF48AAE029B03B102235446984686E662
:109940000AF1F45A0AF5902AD0467BE76048304481
:10995000F5E6BAF1807F00F0948056460024B4E624
:1099600003F014FB80F00100C3B2019336E6AAEBCA
:1099700006031B02B3F5A06F5FDAFF2B3FF7B4AE0F
:109980005646A2E6AAEB0301022002F04BFCB9F115
:10999000000F13D068B90220002402F0FFFC012060
:1099A00002F0FCFC204617B0BDE8F08F464830447A
:1099B000C5E6AAEB0901012002F034FC0028EAD038
:1099C0005146002002F02EFC0028E4D0B9F1000F2F
:1099D0007FF461AF59E795F82A30002B3ED1069B02
:1099E0000520F11A21F07F4102F01CFC002857D01D
:1099F00095F82B30002B7FF45FAF012385F82B30D7
:109A00005AE7C0F10008AB7FC246002B7FF424AFB9
:109A100040F60521702003F06DFBAAEB090101203F
:109A200002F000FC039B002BC8D00028B3D0AAEBA7
:109A30000301022002F0F6FBC0E7304602F000FA14
:109A400043E695F82A307BB9002C3FF435AFC6E7E2
:109A500003F06AF8012385F82A3024E703F0D4F8EC
:109A6000002385F82A30BAE703F0CEF885F82AA05B
:109A7000002C3FF418AFB2E740F26F51702003F0B2
:109A800039FB40F6DE01702003F034FB40F636214E
:109A9000702003F02FFB40F62E21702003F02AFBEC
:109AA00040F2F221702003F025FB40F641117020B6
:109AB00003F020FB40F6C221702003F01BFB00BF27
:109AC0000040420FFF7F841E00807BE1EC060021F6
:109AD0000080841E2DE9F04F914685B00E469A46CF
:109AE00002F02AF98144376829F07F43FA1A029379
:109AF0001202FF2A00F3D4806F4D0AEB4A0340F2B2
:109B00005638EB180393039B93F82040202C50D039
:109B1000C4EBC4004FEAC40905EB8000D0F8BC10C8
:109B2000791A0902FF311DDBF189002959D0B0F8FB
:109B3000C610002955D1D0F8B8B002F0EFFF40456B
:109B400077D040F2F55398426FD0B0F5C67F14BF7E
:109B500001200E20A7EB0B073F0248BFFF37B0EBF9
:109B6000272F3EDD40F2F55BA9EB0400716805EBA1
:109B70008000D0F8B870791A0902FF311DDBB0F807
:109B8000C610B1B1F189A1B93168019102F0C6FFE7
:109B9000404501994BD0584545D0B0F5C67F14BF1C
:109BA00001200E207F1A3F0248BFFF37B0EB272F5E
:109BB00003DC012005B0BDE8F08FA9EB0401307C87
:109BC00005EB810191F8C870874214D904EB4A145F
:109BD00005EB440494F83140202CEAD04FEAC40944
:109BE000C2E704EB4A1405EB440494F83140202CFE
:109BF000DFD037688CE7B1F8C600D1F8BCB008B93F
:109C0000F089C0B9029BABEB03021202FF2A47DCCA
:109C10002BF07F47D6E900123760521A5A4422F0DF
:109C20007F4272606FE73320BCE7332092E71D204C
:109C3000B8E71D208EE7D1F8B87002F06FFF4045FD
:109C400034D040F2F55188422ED0B0F5C67F14BF13
:109C500001200E20ABEB0701090248BFFF31B0EB3A
:109C6000212FCFDD02F05AFF404523D040F2F551BD
:109C700088421DD0B0F5C67F14BF00210D21A9EB8D
:109C80000402029B05EB8202D2F8B82002F1010B1C
:109C90008B442BF07F4BABEB03021202FF2AB7DDA4
:109CA000002005B0BDE8F08F3320D3E71D20D1E7B9
:109CB0003221E4E71C21E2E7EC0600212DE9F8431C
:109CC00098460B780D460646937414464B891382CA
:109CD0000B89D0E90007D38101F0F4FF2B78F3B9A9
:109CE000DFF844C1514AA7FB0C71C319D5E904E858
:109CF00041F100019A1841F10000964578EB00020D
:109D000003D29E4578EB010341D23368013B23F037
:109D10007F4303F57A72C4E90032BDE8F883E38932
:109D200004F10C02424821466F68C01A94F8119061
:109D300001F0D6FF236823F07F432360B9F1000FC1
:109D400051D0B9F1010F64D107F15F0001F0F4FFC8
:109D5000736820F07F4022460021A3606060306875
:109D6000FFF7CEFA4346326821462869FFF7B2FE74
:109D70000028D2D13268D4E90013134422F07F4284
:109D80005B1A226023F07F436360BDE8F883AEEB8B
:109D90000707274973688F42A36027D90133A7EBD0
:109DA0000C076D6804F10C02A3608F42E389667CA6
:109DB00003F10103A7EB030330D88B421DDDA3EBB6
:109DC0000C0021462F4401F08BFF236823F07F43D2
:109DD0002360B6B907F17B0001F0AEFF20F07F40B1
:109DE0006060BDE8F88307F17B00AFE7E38904F129
:109DF0000C026D680133667CFB1A002B06DB1846EB
:109E0000DFE7012E05D107F15F00E5E706481844BA
:109E1000D7E740F22461702003F06CF940F26F51F3
:109E2000702003F067F900BF0080841E0040420FDD
:109E3000FF7F841E2DE9F041394D00EB40030646BB
:109E40004FEA4008AA7F2B44002A93F8204014BF11
:109E50000027022702F0BEF92022710105E09EF8DA
:109E600031302246202B1C4655D0C4EBC40301EBF5
:109E7000040E05EB830305EB4E0ED3E92E3CACEB51
:109E8000000C1B1A2CF07F4C23F07F43BCF5000F15
:109E9000E5D89F4298BFB3F5000FE0D8202A02D141
:109EA0002046BDE8F08108EB060302EB4611700185
:109EB0004FF0040C2B4405EB410193F820E091F89E
:109EC0003110744683F8201003192146274605EB0C
:109ED00043038A4293F8314083F830C0F4D108EB51
:109EE00006032B4493F822C0BCF1200F5FFA8CF2DA
:109EF00013D0024405EB420282F831E001444644AB
:109F00002023204605EB4101354481F8313085F8A6
:109F10002270BDE8F0811C46C0E783F821E0EDE740
:109F2000EC0600212DE9F843464D02EB4203804642
:109F30002B4493F82060202E24D195F82E30202B2E
:109F40000BD0AB68C3F1020398444FEA0828B8F17C
:109F5000FF0F02DD0020BDE8F88395F82A30B3BB7F
:109F600095F82B3063BB042002F018FA02F09EFA39
:109F70002021D5F83434002285F82E1001201A60F3
:109F8000BDE8F8831046144689465700FFF752FF94
:109F90008642DFD195F82E30202B06D0AB68C3F176
:109FA000020343441B02FF2BD4DC494640463246A1
:109FB000FFF7C8FA88B1022085F82E60BDE8F88363
:109FC000052002F0EBF9002385F82B30CBE702F0F7
:109FD0001BFE002385F82A30C2E73B1906EB44122A
:109FE00060012B4405EB420293F820C092F8312027
:109FF00083F82020634604221946C3188E4205EBDD
:10A00000430383F8302093F83130F5D13B192B44CA
:10A0100093F82260202EF2B211D0024405EB4202E6
:10A0200082F831C043183C442022002005EB430352
:10A03000254483F8312085F82210BDE8F88383F8A1
:10A0400021C0EFE7EC06002102F076B900222020C3
:10A0500042F2200138B5194C4FF0FF3384F822004A
:10A06000226084F82C202184636084F82D00A2777C
:10A0700084F82620134604F1300184F82720A283B7
:10A0800084F82E00628501F813200133202BFAD1C9
:10A0900002F0B4FB0125FF23094884F8285084F816
:10A0A000383403F0ABF884F8390403F007F9C4F846
:10A0B000340401F05BFE84F82F5038BDEC0600211B
:10A0C0003D94000108B5064B93F82D20202A01D0BD
:10A0D000987708BD40F27A31702003F00BF800BF8A
:10A0E000EC06002138B5044632B90120094B00FACC
:10A0F00004F4C3F8084538BD00200D4602F036F9D7
:10A10000012344F000420349A34002602A60C1F8E1
:10A11000043538BD00F000412DE9F04FBC4C81B052
:10A1200002F058F8074602F0C1F96368013302D023
:10A130004FF0FF336360A37F002B00F02181637E2B
:10A1400023B194F82730002B40F01281F81C20F046
:10A150007F4001F075FE94F82830002B40F04D81CF
:10A1600094F82D200121202A84F8281000F04A813B
:10A1700094F82DA0202284F826305FFA8AFA84F819
:10A180002D2084F82E2084F82730236002F044FB31
:10A1900094F82C90207709EB49055FFA89F625445D
:10A1A0004FEA490995F820B0BBF1200F00F0E68096
:10A1B000CBEBCB0204EB8203920093F8CA10012987
:10A1C00000F0138109EB06087501A044BBF1200FD4
:10A1D00009D03046FFF72EFE834558D098F820B0BE
:10A1E000BBF1200FF5D194F82E20202A08D0A368C7
:10A1F000C3F102033B441B02FF2B01DD202AFBD1EC
:10A2000094F82A30002B40F0AD8094F82B30002BCE
:10A2100040F0A18004204FF0010802F0BFF802F0E6
:10A2200045F92022D4F8343484F82E2000221A6014
:10A2300005EB0A0304EB430393F83020022A43D0D2
:10A240004E44FF22264484F8292096F82130202B02
:10A2500003D094F8390402F0EDFF237F002B40F087
:10A26000B680B8F1020F0AD1A068C01B01F02AFD28
:10A27000D4F8303443B101B0BDE8F04F1847D4F8FA
:10A280003034002B40F0A88001B0BDE8F08F94F886
:10A290002E30202B06D0A368C3F102033B441B02DF
:10A2A000FF2B9BDC5A4601213846FFF74BF940B3A0
:10A2B00005EB0A034FF0020884F82EB004EB4303C9
:10A2C00093F83020022ABBD109EB06020621224472
:10A2D00083F8301092F822102029CBB200F082804F
:10A2E0002B4404EB430383F831A009EB06035544E8
:10A2F000234404EB450583F822A0202385F8313060
:10A300009EE705EB0B0398F820C0042104EB430300
:10A3100093F83100634688F820001A46EB189345FD
:10A3200004EB430383F8301093F83130F5D198F8FB
:10A3300022102029CBB21ED02B4404EB430383F818
:10A3400031C088F822202A442023834604EB4202AD
:10A3500082F831303AE7052002F020F8002384F833
:10A360002B3057E702F050FC002384F82A304CE7EA
:10A3700001F094FEEFE688F821C0E2E7750132E7CC
:10A38000D4E902304FF40C71C01A20F07F401DF068
:10A39000F7F8E3680344FB1A1B02FF33FFF6CFAE66
:10A3A00094F82D30082194F82D20C3EBC303C2EBA1
:10A3B000C20204EB820204EB8304D2F8B400D4F8A6
:10A3C000B030984740F2BD31702002F093FE02F0A9
:10A3D00001FA0023A38344E74FF0FF3001B0BDE84A
:10A3E000F04F184782F821A07FE70A4B38461A44FD
:10A3F000FEF786FF95F820B0E4E640F2D5317020F4
:10A4000002F078FE4FF47671702002F073FE00BF08
:10A41000EC060021A407002138B50C46054602F0E1
:10A42000B9FC124991F82C3001F1300C5FFA83FE2F
:10A430000CEB831C002302E00133202B14D01CF80A
:10A440001320D8B2002AF7D103EB4E1E0122C3EB32
:10A45000C30301EB4E0E01EB83038EF83020C3F8EB
:10A46000B050C3F8B44038BD184638BDEC060021E2
:10A470001F280AD8C0EBC003012010B4044C04EB21
:10A48000830310BCC3E92C1270470020704700BF43
:10A49000EC06002108B502F0B9F901F04DFC01F01D
:10A4A00011FC80B208BD00BF1F28034613D8104915
:10A4B00091F82C2000EB421201EB420292F830009E
:10A4C00050B191F82C2003EB421201EB420292F8BA
:10A4D0003000012801D00020704791F82CC00022E4
:10A4E00003EB4C1301EB430383F83020704700BFAC
:10A4F000EC06002110B582B0684601F071FEDDE97E
:10A50000000401F0DFFB034B0021E4FB030102B078
:10A5100010BD00BF0080841EF8B5C0EBC000174C12
:10A52000174F04EB8004D4F8B800D4F8C05001F001
:10A53000C9FBB4F8C630024694F8C400A5FB076511
:10A54000013318440F4B9A42104411D898420ADC48
:10A55000002803DB801945F10001F8BD384480195B
:10A5600045F10001F8BDC01B801945F10001F8BD9F
:10A5700040F26F51702002F0BDFD00BFEC060021DB
:10A580000080841EFF7F841EAD4A5368C3F3080316
:10A590002DE9F04F80468FB0002B40F02B8108232F
:10A5A000019398F80030002B40F03181A54F0DF158
:10A5B0001009A54E0DF11C0B039326B1002140F2AA
:10A5C000B95000E000BF97F82C50EDB24FF00003F7
:10A5D00087F8293026B1002140F2BE5000E000BFCC
:10A5E000019B002B63D126B1002140F2C65000E050
:10A5F00000BF484601F0F4FD2B4609AA99E8030084
:10A600008BE8030041465846FFF758FB26B100216E
:10A6100040F2CC5000E000BF97F82D30202B00F026
:10A620009880FB680999CA1A1202FF3280F2918061
:10A630000A9A1A4423F07F43521A9942099322F04E
:10A640007F420A9240F2A7800B9BDDF80CA00133F9
:10A650000B930123029356B1002140F2DF5000E03A
:10A6600000BF26B1002140F2E55000E000BF079A8C
:10A67000099C0A9BA41A9B1A24F07F4423F07F4371
:10A68000B4F5000F98BFB3F5000F94BF0124002468
:10A6900064D9019B002B3ED1BAF1000F70D197F81D
:10A6A0002930002B89D103980FB0BDE8F08F674B9C
:10A6B0006C1C03EB851E04F0010403EB841CBEE854
:10A6C0000F00ACE80F00BEE80F00ACE80F00BEE8DA
:10A6D0000F00ACE80F009EE80F008CE80F0026B1D9
:10A6E000002140F22F5000E000BF05EB450504EBD0
:10A6F000440320352033795B7A1925469278F95244
:10A700003B449A70002E3FF46EAF002140F233506C
:10A7100000E000BF67E7089B1046214609AA0B939B
:10A72000FEF7EEFD1F2309988DF8303001F0CAFACC
:10A73000BDF832209DF8303001321A44444B984223
:10A74000024478D89A4268DC002A4DDB1346002286
:10A7500018E04FF0000ACDF808A07CE7019B002B21
:10A7600036D1029BE3B9002E3CD0DDF808A00021D1
:10A770004FF4BF60039400E000BFBAF1000F8ED029
:10A78000D8E904320B993348E1FB0032C8E90432BE
:10A790000123039383E70123DDF80CA002935AE71A
:10A7A000099801F08FFABDF832209DF8303001325F
:10A7B0001A44274B984202443DD89A4230DC002A82
:10A7C00015DB13460022C8E90432002ECDD1D9E7AB
:10A7D0002B4609A92048FFF77DF9029B0343DBB212
:10A7E0000293BEE703945AE71A4B1344AFE7194BA1
:10A7F0001344E7E7103B59B2002914DB174B5B5CAD
:10A800005B09019398F80030002B3FF4CFAE002392
:10A81000039303980FB0BDE8F08F114B134496E7F4
:10A820000F4B1344CEE703F00F03043B13441B7E8E
:10A830005B090193B5E640F26F51702002F05AFCBB
:10A8400000ED00E0EC060021000000001C070021E4
:10A85000FF7F841E0080841E0040420F00E400E061
:10A8600000807BE1B44A53682DE9F04FC3F308033D
:10A8700095B002900691002B40F0A2820823059328
:10A88000069B1B78012B00F29683DFF8B0B2DFF84D
:10A89000B0A2BAF1000F04D0002140F2077000E02E
:10A8A00000BF029B00250126C3EBC3039B00099355
:10A8B000BAF1000F04D0002140F2127000E000BF96
:10A8C00026B9A04B0BB100E000BF62B69BF82C305C
:10A8D0005FFA83F84FF0000E059B8BF829E0002B00
:10A8E00040F01F82CDF80C80BAF1000F04D0002197
:10A8F00040F2267000E000BF0AA80DAC01F070FC29
:10A900000AA943460FAA03C984E803000699204612
:10A91000FFF7D4F9BAF1000F04D0002140F22D70F6
:10A9200000E000BFDDE9022302EB43115E010BEB07
:10A93000410191F83030013B012B00F2FA800D9B70
:10A94000DDF83C90109A8048D21AA9EB0303184016
:10A9500023F07F4322F07F42003818BF0120B3F577
:10A96000000F88BF0020B2F5000F8CBF002000F060
:10A9700001000490002840F0EB800398042200EBD3
:10A98000400381F8302042005B44089293F8221083
:10A990002029CAB200F06B823244029B0BEB4202C8
:10A9A00082F831300246089B00251344029A5B442A
:10A9B000164483F822200BEB4606202386F831301C
:10A9C00001230493BAF1000F04D0002140F2327049
:10A9D00000E000BF5D4B0BB100E000BFEFF310875C
:10A9E0003E4672B6BAF1000F04D000214FF4E76082
:10A9F00000E000BF9BF82940002C7FF459AFBAF16A
:10AA0000000F04D021464FF4E86000E000BF099B2E
:10AA10000DF13C0E0BEB030CBEE80F000CF1B80C73
:10AA2000ACE80F00DEF80030CCF80030049B002BBF
:10AA300000F09282BAF1000F04D0002140F24D7074
:10AA400000E000BF059B002B00F09082DDB19BF879
:10AA50002D30202B17D1BAF1000F04D0002140F285
:10AA6000527000E000BF424602210D98FFF75AFAEB
:10AA7000002840F08D82069B1978002900F03D8265
:10AA8000012900F09381BAF1000F04D0002140F2B7
:10AA90006F7000E000BF9BF82C30DB4303F0010334
:10AAA0008BF82C30FF238BF82930BAF1000F04D03B
:10AAB00000214FF4F06000E000BF022C00F0CA81DA
:10AAC000012C05D1DBF8303413B14FF0FF3098473B
:10AAD00027B91C4B0BB100E000BF62B6BAF1000F02
:10AAE00004D000214FF4F26000E000BF049BA3B14A
:10AAF0009BF82C3003EB43035B4493F82130202B6D
:10AB00000BD0BAF1000F04D0002140F2977000E0A2
:10AB100000BF9BF8390402F08DFBBAF1000F04D09E
:10AB2000002140F29C7000E000BF049815B0BDE821
:10AB3000F08F0023049345E700ED00E0EC060021D0
:10AB40000000000000000000FEFFFF000000000009
:10AB5000039A02EB42035B4493F820405300202CFD
:10AB6000089300F0AA8120234F460193C4EBC4024E
:10AB7000E5000BEB8202D2F8BC30FB1A1B02FF335C
:10AB800025DBBDF84A30002B00F0BF80B2F8C6309C
:10AB9000002B40F0BA80D2F8B89001F0BFFF40F22D
:10ABA0005633984200F02F8140F2F553984200F05E
:10ABB0002681B0F5C67F14BF01220E22A7EB09073C
:10ABC0003F0248BFFF37B2EB272F40F39E80DDF8EE
:10ABD0000490281B10990BEB8000D0F8B870791AFC
:10ABE0000902FF317CDBB0F8C61019B1BDF84A107C
:10ABF00000295AD0019B994500F05781B9F1200FE7
:10AC000000F0D481019B202B06EB09030BEB4303DF
:10AC100093F8312000F03481019BF3180BEB4303D0
:10AC200093F8315083F831202946052473180A46D9
:10AC300008460BEB4303914593F8311083F83040FD
:10AC4000F4D1039C089B23445B4493F82270202F8B
:10AC5000FCB200F04F8134440BEB440484F83150D3
:10AC6000089B3244039C0BEB420223445B4483F871
:10AC700022002020029B82F83100F3180BEB4303E3
:10AC800083F83110019B834200F01D811C4634443F
:10AC9000029B00250BEB440484F831301E4403234F
:10ACA0000BEB460686F830308CE60F99079101F0E1
:10ACB00035FF40F25632079940F2F553904200F0CA
:10ACC000A080984200F09980B0F5C67F14BF0120A3
:10ACD0000E207F1A3F0248BFFF37B0EB272F89DDD8
:10ACE0002D1B9DF84C100BEB850595F8C80088428C
:10ACF00040F28B803119A1460BEB410191F83140B4
:10AD0000202C00F0CE80E50063E733190BEB430302
:10AD100093F83130202B00F0E18001941C460F9F06
:10AD200024E7AA4C08F1010704EB881C07F001078F
:10AD3000BCE80F0004EB871403970FC4BCE80F00B6
:10AD40000FC4BCE80F000FC49CE80F0084E80F009C
:10AD5000BAF1000F04D0714640F22F5000E000BF5E
:10AD600008EB480207EB4703203220333BF8021080
:10AD70000BEB020082782BF803105B449A70BAF157
:10AD8000000F0CD0002140F2335000E000BFBAF1B8
:10AD9000000F04D0002140F21C7000E000BF9BF8BF
:10ADA0002930002B7FF484ADB8469DE5BAF1000F41
:10ADB0003FF486AD014640F2657000E000BF77E5E4
:10ADC000103B59B2002964DB814B5B5C5B09059346
:10ADD000002B7FF455ADDFF8FCB19BF82D30202B14
:10ADE00000F0EE80069B1B780593002B3FF44FADDF
:10ADF0004FF4E061702002F07DF9332069E73322DF
:10AE0000DCE61D2065E71D22D8E6039A0420089B96
:10AE10001344029A5B44B21893F822100BEB4202DF
:10AE2000202982F83000CAB226D03244029B0BEBB4
:10AE3000420282F83130039A0025089B1344029A9B
:10AE40005B44164483F822200BEB4606202386F849
:10AE50003130B7E50D9BDBF80800C01A00F032FF77
:10AE6000DBF83034002B3FF433AE984730E6029ADB
:10AE700083F82120024696E5029A83F82120DAE73A
:10AE8000089B03990B445B4493F8205083F82020DF
:10AE9000CAE603F00F03043B13441B7E5B090593D2
:10AEA00096E7019B99457FF4ADAE202B15D1089B09
:10AEB000039A13445B4493F82040029BF3180BEB76
:10AEC000430383F83140039A089B049D1344029A7C
:10AED0005B4483F820201346E0E61C46029B3219AF
:10AEE000F3180BEB42020BEB430392F8312083F88B
:10AEF0003120CCE683F82150B2E6BAF1000F03D03E
:10AF000040F25A7000E000BF9BF82C300420DDF8BE
:10AF100008C003EB43010CEB43125944DEB20BEBC8
:10AF2000420291F8224082F830005A01202C4FEA68
:10AF30004303E0B236D011180BEB410181F831C068
:10AF4000614633440A4404955B440BEB420283F8A8
:10AF50002210202382F83130BAF1000F3FF4B8AD4F
:10AF600000214FF4F06000E000BFB1E5BAF1000F3E
:10AF700014D0194640F26F701C4600E000BFFF235A
:10AF800021464FF4F0608BF8293000E000BF9FE5C8
:10AF90000446BAF1000F7FF479AD7CE5FF238BF80E
:10AFA000293095E581F821C06146CAE740F2922137
:10AFB000702002F09FF840F20471702002F09AF8BD
:10AFC00040F2FD61702002F095F800BF1C070021DF
:10AFD00000E400E0EC0600212DE9F04FB54C83B011
:10AFE0004FF00109DFF8D082064694F82C3004F1C6
:10AFF000300A01F0EFF80090B8F1000F04D0002102
:10B000004FF4F66000E000BFB9F1000F04D1AB4B84
:10B010000BB100E000BF62B64FF0000384F82930A6
:10B02000B8F1000F04D0002140F2B57000E000BF7D
:10B0300094F82C506F1C0AEB851EEDB207F0010747
:10B04000BEE80F000AEB871CACE80F00BEE80F005B
:10B05000ACE80F00BEE80F00ACE80F009EE80F0060
:10B060008CE80F00B8F1000F04D0002140F22F50FF
:10B0700000E000BF05EB450507EB47032035203313
:10B08000615B62199278E15223449A707A00B8F1B8
:10B09000000F06D0002140F23350019200E000BFC3
:10B0A000019A94F82910002944D1B8F1000F05D075
:10B0B00040F2BF70019200E000BF019A06EB471317
:10B0C0007D0104EB430393F83030032B14D1D319E3
:10B0D000234493F820B05E4500F0BC80BBF1200F04
:10B0E0000AD059466B18084604EB430393F8311015
:10B0F0008E4229D02029F5D1B8F1000F00F0D78079
:10B10000002140F2F3700D4600E000BFB9F1000FDE
:10B1100004D16A4B0BB100E000BF62B6B8F1000F7A
:10B1200004D0002140F6070000E000BF284603B02D
:10B13000BDE8F08FB8F1000F3FF45BAF002140F2A3
:10B14000BB7000E000BF54E72029D5D08B4500F04C
:10B1500085802944284404EB410104EB400091F828
:10B16000312080F83120B8F1000F59D0002140F291
:10B170009A4000E000BF002140F2C47000E000BF30
:10B18000AA1904EB420292F83010002948D006298F
:10B1900046D0032944D0052942D0012182F830103D
:10B1A000B8F1000F04D0002140F2CD7000E000BFE4
:10B1B000434B0BB100E000BFEFF3108972B6B8F15A
:10B1C000000F04D0002140F2D27000E000BF94F8DC
:10B1D0002950ADBB5E4503D194F82D30202B55D0BE
:10B1E000B8F1000F04D0002140F2EA7000E000BF87
:10B1F00094F82C30DB4303F0010384F82C30FF2358
:10B2000084F82930B8F1000F04D0002140F2F37027
:10B2100000E000BF022D2CD0012D08D0012575E7DC
:10B220003544012204EB450585F83020B8E7D4F811
:10B230003034002B3FF46AAF4FF0FF30984765E79A
:10B24000B8F1000F3FF4D5AE002140F2D67000E017
:10B2500000BFCEE6BBF1200F3FF44EAF05EB0B0174
:10B260003A4404EB4101224491F8311082F8201055
:10B2700079E7009B0125A068C01A00F023FDD4F8EF
:10B280003034002B3FF442AF98473FE73A46022163
:10B290000098FEF747FE05460028A1D1B8F1000F3F
:10B2A00005D0014640F2E57000E000BF24E74546C6
:10B2B0002CE700BFEC0600210000000000000000A9
:10B2C0000000000008B5002001F038F800680038E0
:10B2D00018BF012008BD00BF014B93F83804704728
:10B2E000EC06002170B5072800F2A180DFE800F02D
:10B2F0001E5167769F7C8704704C94F82D30202B6C
:10B3000000F0B58094F82D20052194F82D30C2EB83
:10B31000C202C3EBC30304EB830304EB8204D3F840
:10B32000B400D4F8B030BDE870401847634C94F8CE
:10B330002A30002B00F09580E38A002B40F08780B4
:10B3400094F82D30202B00F09880FF23616884F85A
:10B3500027304B1C05D0052000F064FF002800F0CA
:10B36000A380637E012B00F08B8094F82D300121A7
:10B3700094F82D20C3EBC303C2EBC20204EB82029C
:10B3800004EB8304D2F8B400D4F8B030BDE87040C8
:10B3900018474A4C94F82D30202B6BD0012584F8A7
:10B3A000265001F0F3FD002874D094F82A30002BC9
:10B3B00048D094F82D30002194F82D20DAE73F4C46
:10B3C00001F008FAE38A1BB101F0E0FD002866D025
:10B3D00001F02CFA08B10123637770BD374B0122CD
:10B3E000D3F834341A6070BD344C94F82B306BB100
:10B3F00094F82A3003B3002384F82B3070BD2F4B10
:10B40000BDE8704093F8380401F014BF94F82D3073
:10B41000202B3CD04FF0FF3294F827306260002B95
:10B4200047D094F82D30062194F82D20A2E740F65D
:10B430007B01702001F05EFE01F076FB012384F8B1
:10B440002A30D8E701F070FB84F82A50B1E701F008
:10B450009DFD00287FF474AF40F63401702001F0A8
:10B4600049FE01F061FB012384F82A3064E7FDF70F
:10B47000A7FF47E7FDF7A4FF90E7FDF7A1FF64E70B
:10B48000E068013820F07F4000F0A6FD6DE7FDF791
:10B4900097FFBFE740F65E01702001F02BFE40F6FB
:10B4A0006801702001F026FE40F63901702001F09D
:10B4B00021FE4FF40561702001F01CFEEC06002116
:10B4C0000E4B93F82D20202A11D093F82D00042143
:10B4D00093F82D20C0EBC000C2EBC20203EB820246
:10B4E00003EB8003D2F8B400D3F8B030184740F62D
:10B4F0008701702010B501F0FDFD00BFEC060021B2
:10B5000070B53A4D82B095F82D30202B68D06B681D
:10B51000013356D195F82D400646C4EBC40405EB23
:10B520008404D4F8B80000F0CDFBB4F8C62094F839
:10B53000C410531C2E4A0B449042034429D8934212
:10B540002CDC002B1FDB33442A4A964243DC2A4A78
:10B5500096423BDD264A934223DC002B2EDB184625
:10B560000DF1030201A900F0BBFB9DF80320019936
:10B5700095F827300F2A88BF013121F07F4169609B
:10B5800093B902B070BD1D4A1A44194993198A42F1
:10B59000DAD940F26F51702001F0ACFD184A1A441C
:10B5A000F3E717481844DBE7052000F03BFE0028CE
:10B5B000E7D140F6A821702001F09CFD0F48184407
:10B5C000CEE740F6A121702001F094FD40F27151C8
:10B5D000702001F08FFD4FF4AE61702001F08AFD04
:10B5E0004FF42A61702001F085FD00BFEC060021B8
:10B5F000FF7F841E0040420FFFBFBDF00080841E0D
:10B6000000807BE110B50A4C94F82F3063B194F8B8
:10B610003834FF2B01D0002010BD01F0EFFD0346B0
:10B62000002084F8383410BD6FF0220010BD00BF38
:10B63000EC06002138B50E4B04460BB100E000BF0C
:10B64000EFF3108572B60620214600F0EBFD0446AC
:10B6500025B9084B0BB100E000BF62B604B138BD9C
:10B66000054B93F83804BDE8384001F0E3BD00BF56
:10B670000000000000000000EC06002100F0AABD60
:10B68000254910B591F82D30202B40D091F82D4050
:10B6900091F82C3091F82CE0E4B203EB43035FFA0D
:10B6A0008EFE0B4493F82030202B20D04FEA4E1E04
:10B6B00006E0734401EB430393F83130202B16D09E
:10B6C000C3EBC30201EB820292F8C8C08445F0D8F4
:10B6D000C4EBC404D2F8B80001EB8404D4F8BC3045
:10B6E000C01A000210F1FF0F04DA002010BD4FF065
:10B6F000FF3010BD00280C68B8BFFF30001200F00A
:10B70000E1FA04F174038342EFD8001B10BD40F648
:10B710000231702001F0EEFCEC06002108B5064B6A
:10B7200093F82D20202A01D0187E08BD40F62A313A
:10B73000702001F0DFFC00BFEC0600212DE9F04F86
:10B740008D4C85B094F82D20202A00F00F8194F8BC
:10B750002D60804694F82C208946206803A902EBCE
:10B760004202E3684044F6B22244019392F820502A
:10B770000DF10B0200F0B4FAA8F174017F4A914276
:10B780005DD8C6EBC606039A04EB8606D6F8BC0065
:10B790001044A268821A22F07F42B2F5000F4ED800
:10B7A00020F07F4094F82C20202D84F818905FFA28
:10B7B00082FBE06000F0D0804FF0200AC5EBC50CA2
:10B7C000EE0004EB8C0CDCF8B870381A0002FF3085
:10B7D00054DBBCF8C6300BB1E38AA3B3052000F0FC
:10B7E000DDFD94F82C004FF0FF33BAF1200FC0B20A
:10B7F000636040F0AF8000EB40002025204490F8CB
:10B80000202094F82C1094F82D3003EB411304EB16
:10B81000430383F83120236843442360637EFF227F
:10B82000012B84F8292000F08B80202D43D094F840
:10B83000390401F0FFFC002005B0BDE8F08F0120C5
:10B8400005B0BDE8F08FD4F8089001F067F940F238
:10B850005633984227D040F2F553984221D0B0F5A4
:10B86000C67F14BF01200E20A7EB09073F0248BF87
:10B87000FF37B0EB272FB1DD94F81890761B04EB5F
:10B88000860696F8C81049450FD905EB4B1104EB15
:10B89000410191F83160202E11D0AA46E06835466A
:10B8A0008CE73320E0E71D20DEE70220019BE36008
:10B8B00005B0BDE8F08F002005B0BDE8F08F052091
:10B8C00000F06CFD94F82C004FF0FF33C0B26360C1
:10B8D00000EB40034FF0050C05EB401223444FEA08
:10B8E000400E04EB420293F82090460192F831207A
:10B8F00083F820204A46B3181146174604EB430349
:10B900008D4293F8312083F830C0F4D10EEB000360
:10B91000234493F822A0BAF1200F5FFA8AFC16D0D4
:10B92000B44404EB4C0C8CF8319031447044202327
:10B9300004EB4101204481F8313080F8227060E747
:10B94000E368013B23F07F4000F046FB6DE783F89E
:10B950002190EAE75546BBE7052000F01FFD4FF0B8
:10B96000FF3394F82C006360C0B244E74FF43361B6
:10B97000702001F0BFFB00BFEC0600218C3F420F9E
:10B980002DE9F84FA24C94F82C3000EB431304EB54
:10B99000430393F83030002B00F0348194F82C608E
:10B9A00005469C4FF6B227B1002140F6763000E004
:10B9B00000BF4FEA461805EB461604EB4606002F7B
:10B9C00040F0B48008EB050604EB460696F83030EC
:10B9D000012B06D10FE01BF00DFE96F83030012B45
:10B9E00009D01A1F022AF6D808EB0503012204EB3E
:10B9F000430383F830204FF0010ADFF81C9227B18F
:10BA0000002140F68D3000E000BFBAF1000F04D1F4
:10BA1000824B0BB100E000BF62B64FF0000384F828
:10BA2000293027B1002140F6923000E000BF94F8A1
:10BA30002CC00CF101065FFA8CF809EB8C1C06F0A7
:10BA40000106BCE80F0009EB861EAEE80F00BCE85B
:10BA50000F00AEE80F00BCE80F00AEE80F009CE856
:10BA60000F008EE80F0027B1002140F22F5000E0B8
:10BA700000BF08EB480806EB460308F120084FEA30
:10BA8000460B203334F8081004EB08029278E15298
:10BA900023449A7027B1002140F2335000E000BFE8
:10BAA00094F82910002956D11FB140F69C3000E0CF
:10BAB00000BF0BEB0603234493F82100202810D08D
:10BAC000854200F08A80804671014246C2468B184A
:10BAD00004EB430393F83180454545D0B8F1200F7E
:10BAE000F3D127B100214FF43A6000E000BF4C4B86
:10BAF0000BB100E000BFEFF310839A4672B694F8E2
:10BB00002920002A60D184F82C60FF2284F82920A3
:10BB100023B9424B0BB100E000BF62B627B1002150
:10BB200040F6B33000E000BFBDE8F88F96F8303043
:10BB3000012B3FF460AF1A1F022A5FD9002140F6A3
:10BB4000823000E000BF1BF055FD002140F686303A
:10BB500000E000BF33E7002F3FF457AF002140F66D
:10BB6000983000E000BF4AE7B8F1200FB9D0404557
:10BB700039D00A44414404EB410104EB420291F8FC
:10BB8000313082F8313027B1002140F2924000E09C
:10BB900000BF0BEB0603234493F82230984507D0EF
:10BBA000002FA4D0002140F29A4000E000BF98E7A7
:10BBB00027B1002140F2954000E000BF0BEB0603E7
:10BBC000234483F822A0EBE7002F3FF41EAF0021AF
:10BBD00040F6A63000E000BF11E7202881D0804663
:10BBE0004FF0200A710101440BEB060304EB410105
:10BBF000234491F8312083F82120C4E7012386F8FB
:10BC00003030A2E740F66D31702001F073FA00BFCA
:10BC1000EC060021000000001C07002100000000CD
:10BC20000000000070B582B0044610461D4600F0CA
:10BC300049F80646684600F0D3FA019B1D49A3FB6C
:10BC40000132E21A1BD41C4B9A4229DCB11A1B4B5D
:10BC5000994209D3921B9A420BD3174B994216D89B
:10BC60009A4222D91649891AA5F10F00401A02B04A
:10BC700070BD5142A5F10F00401A02B070BD0A44D8
:10BC8000002AE3DA40F6C831702001F033FA01F1FE
:10BC9000F451A5F10F0001F59021401A02B070BDDA
:10BCA00040F6C931702001F025FA40F6C22170201B
:10BCB00001F020FA0080841EFF7F841E0040420FA6
:10BCC00000807BE143F60952C0F30803400A02FBFF
:10BCD00003F302FB00F003F5807300EB5320704781
:10BCE00048F2376C430B0CFB03F300B54FEA134CDF
:10BCF00043F6095E0F4B0EFB1C0000FB03F35B0DCC
:10BD00000EFB03FE03EB4C2343F6085CF444B0EB5C
:10BD10005C2F08D80EF5807E0B60A0EB5E20C0B2D1
:10BD200010705DF804FB013300200B6010705DF8AB
:10BD300004FB00BF6F0C010048F23761420B43F671
:10BD4000095C094B01FB02F2120C0CFB12015002C0
:10BD500001FB0333013B5B0D0CFB03FCB1EB5C2FE0
:10BD600088BF0130184470476F0C010030B4304B6D
:10BD7000002204244FF080712E484FF480551A7031
:10BD80009C709A605960C0F88050BFF34F8FBFF32A
:10BD90006F8F01211A734FF40034C0F88051264B85
:10BDA0004FF0FF355960C3F80853C3F84025C3F876
:10BDB0004021C3F84425C3F84421C3F84825C3F8FB
:10BDC0004821C3F84C25C3F84C211961C0F88040C4
:10BDD000BFF34F8FBFF36F8F184AC0F88041516097
:10BDE0009160D2F80435002BFBD14FF0FF314FF4B6
:10BDF00000341048C2F80813C2F848134FF4827197
:10BE0000C2F84035C2F84031C2F84435C2F8443176
:10BE1000C2F84835C2F84831C2F804310123046041
:10BE200013600223C2F84413C2F8043330BC7047D5
:10BE3000280B002100E100E000C00041001001419A
:10BE40005C4970B50D78012D40F096804B688342B7
:10BE500000F09180584B0622C3F8082503F50053E3
:10BE6000564AC3F80823564B564AC3F848230022C3
:10BE7000C3F84425C3F84421514BD3F8482122B9D3
:10BE8000D3F80431002B00F08E804D4A4FF48036F9
:10BE900000234D4CC2F80863C2F84863C2F8403131
:10BEA000D2F80435C31A234204D023F07F43B3F5FC
:10BEB000000F08D9424B002240F293216C20C3F8B6
:10BEC000402501F017F9C2F84005C2F844632DB1CE
:10BED0004D68D2F80435EB1A2342FAD0012600222D
:10BEE0003A4C4FF480558A700E61C4F88050BFF30D
:10BEF0004F8FBFF36F8F364B48604FF0FF30C4F861
:10BF000080510A735E60C3F80803C3F84025C3F884
:10BF10004021C3F84425C3F84421C3F84825C3F899
:10BF20004821C3F84C25C3F84C211E61D3F80425E1
:10BF3000284822F00302C3F80425D3F8082522F08C
:10BF4000030242F00202C3F808250422C3F81025B8
:10BF5000DE600E69C3F80062C4F880512560184C99
:10BF6000C4F8C001A4F50054C3F8800040F20143B6
:10BF7000C4F804250B8070BD0F4B0622C3F80825BA
:10BF800003F500530D4AC3F80823002D7FF46BAF6F
:10BF9000C3F84823C3F84055C3F84051C3F844558B
:10BFA000C3F8445168E7094B4FF40032C3F88021CD
:10BFB0006BE700BF280B002100F00041FDFFFBFFF5
:10BFC00000100141FDFFFAFFFEFFFF0000E100E06D
:10BFD00000C00041020000802A4970B50E784B680D
:10BFE000022E41D0834247D00B7B002B3FD0264B03
:10BFF00002224FF48035254CC3F808250023244A3B
:10C00000C2F80853C2F84853C2F84031D2F8043598
:10C01000C31A234204D023F07F43B3F5000F08D99D
:10C020001B4B002240F2B1216C20C3F8402501F0E7
:10C0300061F8C2F84005C2F844532EB14D68D2F8F9
:10C040000435EB1A2342FAD0124B40F20242104D53
:10C05000114C48600220C5F8C031C4F88C300A4B3E
:10C06000C3F804050A8070BD8342BDD170BD40F2A3
:10C07000A5216C2001F03EF840F2A1216C2001F0D6
:10C0800039F800BF280B002100F00041FEFFFF003F
:10C09000001001410100008000C0004170B5404B1C
:10C0A0004049414CC3F808132278002A44D1C3F810
:10C0B0004813C3F84025C3F84021C3F84425C3F80A
:10C0C0004421D3F84831002B65D1354BD3F80431E6
:10C0D000002B5AD0022A5ED1314A6368D2F8040597
:10C0E000033020F07F40834211D0D2F804259A1A01
:10C0F00022F07F41B1F5000F09D82C49114031B130
:10C10000FFF79EFE23692A4AC2F8003270BD244917
:10C11000284AD1F804051B1A1A4022B123F07F43A4
:10C12000B3F5000F15D90122002113462261204AE0
:10C13000A170C2F8003270BD00211F48C3F8480347
:10C14000C3F84415C3F84411D3F84831002BC1D1CA
:10C15000BBE70123164A19480226194D4FF0000C7F
:10C160002361C0F8086584F802C05360D360C1F849
:10C17000C0510421C2F8805040F20142C0F80415B9
:10C1800022800B4AC2F8003270BD0E4B4FF40031D2
:10C19000C3F880119EE740F2BD216C2000F0AAFF99
:10C1A00000100141FDFFFBFF280B0021FCFFFF00F9
:10C1B00000C00041FEFFFF00FDFFFAFF00F000415C
:10C1C0000200008000E100E0014B5868704700BFAA
:10C1D000280B0021014BD3F80405704700100141E2
:10C1E00070B4EFF3108672B60C4A0D49D2F80445CC
:10C1F000D2F804315BB100258B6801338B60C2F843
:10C200000451D2F80445D2F80431002BF4D18B68E4
:10C2100006B962B6C0E9004370BC70470010014126
:10C22000280B0021032870B521D83E4B5A68B2F183
:10C23000807F52D01A78022A5DD03B4D82000123C4
:10C24000103003FA00F602F140002A44C5F80863F2
:10C250004351D2F84045A1EB040C2CF07F4CBCF1CB
:10C26000020F42D800231846C2F8403570BD031FA4
:10C27000DCB2022C4CD82B4B1A7812B15B7883427B
:10C280004BD00C300122A300284DC0B203F5A0739F
:10C2900082400020C5F80823C5F848235851D5F836
:10C2A0000405234B081A034020F07F40B0F5000F2F
:10C2B0008CBF00200120002B08BF002020B904F50E
:10C2C000A87345F8230070BD04F5A87345F8231042
:10C2D000C5F80423C5F8442370BD1A7B002AA9D1F0
:10C2E00040F24D316C2000F005FFC2F840151846B1
:10C2F000C5F8046370BD5C780E4A231F032CDBB2C3
:10C300004FEA83031A4498D91368002BFCD094E7B2
:10C3100040F271316C2000F0EDFE40F26D316C2086
:10C3200000F0E8FE280B002100C000410010014190
:10C33000FEFFFF004011014100207047032808B5AF
:10C3400003D8084B03EB800008BD0438C0B20228B4
:10C3500003D8054B03EB800008BD40F295316C20FB
:10C3600000F0C8FE40C1004140110141032808B55A
:10C3700003D8084B03EB800008BD0438C0B2022884
:10C3800003D8054B03EB800008BD40F295316C20CB
:10C3900000F0B0FEC0C10041C0110141032870B5DA
:10C3A00082B014D800F1100482000121384B02F54C
:10C3B000A07200F5A870A1400024C3F8081343F848
:10C3C0002040D450D3580093009B02B070BD031F8F
:10C3D000DBB2022B57D82F4A117801BB0C30012158
:10C3E0002D4A03F5A874C0B29B0001FA00F0C2F810
:10C3F0000803C2F8480352F82400D2F80415401A82
:10C400002649014029B1002103F5A07042F824100B
:10C410008150234A9B580193019B02B070BD547810
:10C420008442DBD11F4C06250129C4F8085505D0EC
:10C4300000244FF0807114705160CFE71A4C4FF414
:10C440008055C4F88050BFF34F8FBFF36F8F4FF00C
:10C45000FF36C4F880510E4C002561601573C4F896
:10C460000863C4F84055C4F84051C4F84455C4F8B2
:10C470004451C4F84855C4F84851C4F84C55C4F860
:10C480004C512161D4E740F2F5316C2000F032FECE
:10C4900000C00041280B002100100141FEFFFF00F9
:10C4A0004011014100F0004100E100E01E4B1F4936
:10C4B0001F4AC3F8081312783ABBC3F84813C3F8ED
:10C4C0004025C3F84021C3F84425C3F84421164B46
:10C4D000D3F8482112B9D3F80431FBB1154B00222F
:10C4E0004FF0FF31C3F80813C3F84025C3F84021CB
:10C4F000C3F84425C3F84421C3F84825C3F84821AC
:10C50000C3F84C25C3F84C21704700220A49C3F8F0
:10C510004813C3F84425C3F84421D8E7074B4FF428
:10C520000032C3F88021D9E700100141FDFFFBFF75
:10C53000280B002100C00041FDFFFAFF00E100E0F0
:10C54000434BD3F80423D00310B503D5D3F84021CF
:10C55000002A40D13E4BD3F80423910303D5D3F8EE
:10C560004421002A55D13A4BD3F80423520302D573
:10C57000D3F848218AB9364BD3F8042102B910BD4B
:10C58000344A002434494FF40030C3F80441C1F860
:10C59000800193680133936010BD2F4A00244FF44B
:10C5A00000302E49C3F84841C2F88001D3F848252D
:10C5B000D3F80435D31A194021B123F07F43B3F5E2
:10C5C000000FD8D9224B4FF480220620C3F808234D
:10C5D000FEF788FECFE7204A00244FF400301F49C1
:10C5E000C3F84041C2F88001D3F84025D3F80435A0
:10C5F000D31A194021B123F07F43B3F5000FA9D915
:10C60000134B4FF480320420C3F80823FEF76AFE70
:10C61000A0E7114A00204FF40031C3F84401C2F8EA
:10C620008011D3F84425D3F80435D31A23F07F4280
:10C63000B2F5000F03D8094A1A40002A93D1044BDF
:10C640004FF400320520C3F80823FEF74BFE8AE7BB
:10C6500000100141280B002100E100E0FEFFFF0077
:10C6600030B5594C85B0A378042B32D023785BB118
:10C67000012B00F0A180237B002B00F09F80022380
:10C6800060782370FFF78AFE504BD3F8042315031C
:10C6900002D5D3F84C2112BB4C4BD3F804235003E2
:10C6A00003D5D3F84821002A34D1484BD3F80423CA
:10C6B000910303D5D3F84421002A46D1434BD3F844
:10C6C0000423D20303D5D3F84021002A58D105B062
:10C6D00030BD072005B0BDE83040FEF703BE0022A4
:10C6E0004FF400203A49C3F808030320C3F84C254F
:10C6F000C3F84C21D3F84C3100934FF48053009A87
:10C70000C1F88031FEF7EEFD304BD3F8042350031F
:10C71000CBD5C6E700224FF480202D49C3F808038B
:10C720000220C3F84825C3F84821D3F848310193C3
:10C730004FF48053019AC1F88031FEF7D3FD234BAB
:10C74000D3F804239103B9D5B4E700224FF40030A5
:10C750001F49C3F808030120C3F84425C3F8442146
:10C76000D3F8443102934FF48053029AC1F88031D8
:10C77000FEF7B8FD154BD3F80423D203A7D5A2E7E3
:10C7800000204FF48031124AC3F80813C3F8400563
:10C79000C3F84001D3F84011206103914FF4805158
:10C7A000039DC2F880110422A270C3F8000205B0F4
:10C7B000BDE83040FEF796BD237360E740F29F412D
:10C7C0006C2000F097FC00BF280B002100C0004146
:10C7D00000E100E0074B93F90030002B09DB5A0918
:10C7E000012103F01F030448403201FA03F340F82B
:10C7F000223070473C0B002100E100E0024B002298
:10C800001A705A80704700BF400B0021014B5888B6
:10C81000704700BF400B0021034B187802380128F5
:10C820008CBF002001207047400B0021034B18787B
:10C83000A0F10300B0FA80F040097047400B0021DE
:10C84000BFF35F8F024A137803F0FE031370704743
:10C85000440B0021064B1A78D20707D41A7842F00D
:10C8600001021A70BFF35F8F0120704700207047EC
:10C87000440B002108B5FEF701FF0A4A034652683F
:10C880005069C31A1B02B3F5407F03DBBDE80840C3
:10C89000FEF7D0BEFFF7D4FFFEF71EFDBDE808404F
:10C8A00000F0C8BC440B002170B40E4D6B6823B976
:10C8B0006860C36170BCFFF7DDBF46691A4600249B
:10C8C0005169711A0902FF3109DBD169144621B996
:10C8D000E369C361E06170BC70470A46F0E79342C8
:10C8E000F6D1E5E7440B0021074A5368834203D1A0
:10C8F000DB6953607047134623B1DA699042FAD17D
:10C90000C269DA61704700BF440B00212DE9F04194
:10C910003A4FFEF7B3FE01467C68002C6BD0FFF760
:10C9200099FF804630B9C81C20F07F40BDE8F04137
:10C93000FEF780BE7B685869411A0902B1F5407F55
:10C9400021DA2F4E2046FFF7CFFF257C05B3636920
:10C95000013D03F580032574002523F07F436361C7
:10C96000FFF7A2FF7C6854B1FEF788FE03466069BA
:10C97000C31A1B02B3F5407F36DBFEF75BFEBDE852
:10C98000F041FFF75DBFFFF75BFF7B685869CDE7BC
:10C99000A069C8B1B042217A1DD9B0FBF6F506FBFB
:10C9A0001505002D08BF354628461AF0DAFD6369E3
:10C9B000184420F07F406061A069401BB0FBF6F096
:10C9C00020742046FFF770FFFFF73AFF2046E36828
:10C9D00045469847C6E71AF0C4FD636925741844B4
:10C9E00020F07F406061ECE7002DABD0FEF774FCD7
:10C9F00000F020FCC3E7BDE8F08100BF440B00213C
:10CA00000020A1070148FEF7FDBD00BF0DC90001D0
:10CA10002DE9F04105468846FFF71CFF00286ED03F
:10CA20004DB3384B5E6816BB10223146A81800F093
:10CA300009FDFEF723FEB8F1010F074621D018F0DB
:10CA4000FD0F57D12B7A2C68002B4BD03D2C4CD8A6
:10CA5000B8F1020F4FF03F0400D1AC61297A2046B3
:10CA60001AF07FFD074427F07F476F6133E0B5423E
:10CA700001D0F669D7E76FF01500FFF7E1FEBDE8DA
:10CA8000F0812868DFF880804045F4D8297A1AF0D0
:10CA900068FDC01B0302E6D43846FFF713F92C6883
:10CAA000844238BF4444241ADFF860804445D5D915
:10CAB000297AB4FBF8F608FB1646002E08BF464656
:10CAC0003046A61B1AF04DFD0744B6FBF8F627F0DA
:10CAD0007F472E746F612846FFF7E6FE0020FFF7C0
:10CAE000AFFECCE75D2C38BF5D24B8F1020FDBD17F
:10CAF000AC61D9E74FF4B2716E2000F0FBFA6FF031
:10CB00002200BCE7440B0021E17F841E0020A10726
:10CB1000014B9888704700BF4C0B0021014B58888F
:10CB2000704700BF4C0B002110B5EFF3108472B6B4
:10CB3000064A93790133DBB293719379012B01D1CA
:10CB400000F00AFA04B962B610BD00BF4C0B002118
:10CB500070B50B4C26785EB90125A0602570FFF7F3
:10CB6000E3FF00F013FA28B9064B2573C3F804530A
:10CB7000002070BDA368002BFAD09847A660F7E7A5
:10CB80004C0B00210050004108B5FFF7CDFF00F02D
:10CB9000FDF9084A084B30B10121116104225A7392
:10CBA00000229A7308BD032159730121C2F80413AE
:10CBB000F6E700BF005000414C0B002138B5114C86
:10CBC000E37BB3B1A27B013B9A4212DA00F0DEF9BB
:10CBD000054600F0D5FAE37B012B82BFA37B01332E
:10CBE000A37355B12369C31A0133022B09D935B197
:10CBF0002061BDE83840FFF7C7BF6369F3E76061B4
:10CC0000F7E738BD4C0B002110B5EFF3108472B676
:10CC10000A4B9A7922B94FF48E716D2000F06AFAAE
:10CC20009A79013AD2B29A719A791AB91B7E0BB9E4
:10CC300000F098F904B962B610BD00BF4C0B00219A
:10CC400008B5054B1A7822B100221A731A70FFF743
:10CC5000DBFF002008BD00BF4C0B0021024B587BBE
:10CC6000003818BF012070474C0B002170B51B4CD9
:10CC7000637E7BB9E06900F0030000F0AFF948B1D2
:10CC8000FFF7C0FE30B9EFF3108372B6627B12B1CA
:10CC900003B962B670BD0122627303B962B60023A4
:10CCA0000F4D8026C5F80863C5F81C3184F8203084
:10CCB000FFF76AFF94F8443002210A4A0A485343B6
:10CCC00063620A4B2363FFF7A3FE20B140F24E21BB
:10CCD0006D2000F00FFAC5F80463DBE74C0B002170
:10CCE0000050004190D00300700B0021BDCB00012B
:10CCF000F8B5264C94F84530002B45D0244BD3F89A
:10CD00000071D3F8046157B10122C3F80823237BD3
:10CD10002BB10025A36825730BB19847A5601C4D66
:10CD20003EB10023C5F804310223C5F80833FFF7EC
:10CD30009DFFD5F81C3194F82060F6B237B1627BC4
:10CD4000032A01BF0422627301222A617BB1104BC6
:10CD50000022C3F81C21637B042B04D040F2CB11CA
:10CD60006D2000F0C7F902236373FFF74DFF5EB13A
:10CD7000002384F82030637B022B01D1FFF704FFEE
:10CD8000BDE8F840FFF740BFF8BD00BF4C0B0021E5
:10CD90000050004110B5044CE06900F0030000F0C1
:10CDA0001DF90028F8D010BD4C0B0021F8B5054640
:10CDB00050B10278022A07D8437842B9013B1F2BB1
:10CDC00002D88378212B07D96FF015006AE0002B79
:10CDD000FAD18378002BF7D15B4B2022C3F8802057
:10CDE000BFF34F8FBFF36F8F584EC3F880214FF0C2
:10CDF000FF33574CC6F808330023C6F80031C6F895
:10CE00000431C6F81C31A371AB88A38000F0CEF8C2
:10CE100010B101232370A371D6F80C34D6F80C247A
:10CE2000D60303D5D80701D500F0AAF840F2F55390
:10CE3000AA78697863800123E2730022E3612B788A
:10CE400084F84410012B6376A2732CD0022B2DD0D2
:10CE5000002B38D100F0B2F800283ED000F0B6F830
:10CE6000E36903F00303984237D1AB7983BBFFF743
:10CE700091FFE37B63B12B7853B900F087F8054647
:10CE800000F07EF96FF00043002D5AD0C4E904038E
:10CE900001232022002084F845302B4B6073C3F817
:10CEA00080211A60F8BD0223E361D3E7FFF73CFE5F
:10CEB000264BD3F80C24D3F80C14C903F9D5D207A8
:10CEC000F7D50323F0E740F23A316D2000F012F974
:10CED0001E4B0222C3F80423CBE71C4E0123002281
:10CEE000F360C6F80421227FC6F81825B360022338
:10CEF000C6F80433AB79002BBBD1D6F804339B07BB
:10CF000002D440F2FB21E0E7124B1F691A6907F0D7
:10CF1000100742F010021A61D6F8043173B1FFF71E
:10CF200039FF27B90B4A136923F010031361022359
:10CF3000C6F808330023C6F804319AE71AF05AFB02
:10CF4000EAE7C4E90430A3E700E100E00050004153
:10CF50004C0B002100ED00E0014B01221A607047EC
:10CF600000500041044A012353600023C2F80031FD
:10CF7000024A1370704700BF00500041930B00211C
:10CF8000014B01221A707047930B0021054BD3F817
:10CF9000003123B9044B187800F0010070470120DC
:10CFA000FAE700BF00500041930B0021024BD3F879
:10CFB000080400F00100704700500041024BD3F814
:10CFC000140400F00100704700500041024BD3F8F8
:10CFD0001C0400F00300704700500041074B02465C
:10CFE000D3F81814D3F8180410F4803005D0D0B258
:10CFF00001F003031B1A584258417047005000418A
:10D00000BFF34F8F0549064BCA6802F4E062134331
:10D01000CB60BFF34F8F00BFFDE700BF00ED00E026
:10D020000400FA05094B01225A604FF0FF32C3F8A1
:10D0300008234FF48032064BC3F88020BFF34F8F94
:10D04000BFF36F8FC3F88021704700BF000001411C
:10D0500000E100E0094B0022C3F8FC2F0122C3F8D5
:10D06000FC2F4FF48072064BC3F88020BFF34F8F24
:10D07000BFF36F8FC3F88021704700BF008000416D
:10D0800000E100E0F8B5194E05460C461746337826
:10D090004BBB1AF054FA164B7760002D08BF1D46A3
:10D0A0003472FFF7D7FF2846FFF7BCFFFFF77EFE7D
:10D0B0000546B0B9FCF7CAFFFFF7D8FD1AF040FAF1
:10D0C000002C0CDB04F01F0264090123A400934030
:10D0D00004F1604404F56144C4F880312360012305
:10D0E00033702846F8BD4FF0FF35FAE7940B002166
:10D0F000A06203011FB572B6134B5D688DB9FFF7CF
:10D100007FFFB4FBF6F4D3B20132002CF9D103F166
:10D1100010026A4402F80C4C0A2233B901A8A8474D
:10D12000EDE7044600220A26EDE7013BDBB203F1FE
:10D1300010040DEB0406B0FBF2F402FB14003030D7
:10D1400006F80C0C2046E8E7940B0021074B93F9F6
:10D150000830002B09DB5A09012103F01F0340327C
:10D1600001FA03F3024941F822307047940B002181
:10D1700000E100E0014B1878704700BF940B0021DC
:10D180001B4B4FF4803270B5C3F88020BFF34F8F34
:10D19000BFF36F8F174D0021174CC5F80011C3F86E
:10D1A00080212669236906F0100643F010032361ED
:10D1B0000123C5F804332B60D5F80031A3B11EB9A3
:10D1C000236923F0100323610A4B0122D3F80805D9
:10D1D0005A60C3F808230022C3F800214FF48032BC
:10D1E000034BC3F8802170BD1AF004FAE4E700BFD6
:10D1F00000E100E00000014100ED00E002460C49C2
:10D20000052038B50138C0B2FF2803D14821692074
:10D21000FFF770FF01EBC0031D7905F0FF04002D3F
:10D22000F0D141F8302001225C719C711A7138BD37
:10D23000A00B0021042808B503D958216920FFF765
:10D2400059FF094B03EBC0000379012B01D0592191
:10D25000F4E7437982790133DBB29A4218BF437114
:10D26000BDE80840FFF772BFA00B002170B506258E
:10D27000114C0026013D15F0FF0500D170BD94F85A
:10D28000281004EBC1031A79012A09D158799A7937
:10D29000904205D05A79D2B29A7154F831309847F9
:10D2A00094F828300133DBB2042B94BF84F8283083
:10D2B00084F82860DEE700BFA00B0021004870471B
:10D2C00000070841094B0A4AC3F880210132C3F81C
:10D2D00084210132C3F88C210132C3F89021053238
:10D2E000C3F8EC21013AC3F8902070470080004158
:10D2F00004000080074B0022C3F88021C3F884217A
:10D30000C3F88C21C3F89021C3F8EC21C3F8902016
:10D31000704700BF0080004192B1013A17D0034628
:10D3200000EB020C10B501E09C450BD08E461C466C
:10D3300011F8012B13F8010B9042F5D0801A10BDA3
:10D340001046704760789EF80120801A10BD007862
:10D350000A78801A704700BF81EA00039B072DE915
:10D36000F0415CD187075ED0002A56D0034601E029
:10D37000002A52D011F801CB013A03F801CB9E07E5
:10D38000F6D1032A28D941EA0305141F6D074FEA95
:10D39000940E4AD12B2C48D90EF10108A1F10805B1
:10D3A0001C464FEA580C03EBCC0CF5E90267E4E8A5
:10D3B00002676445F9D118F0010F28F0010403D089
:10D3C00051F8245043F824500EF1010402F00302F6
:10D3D00003EB840301EB8401FAB1541E022C20D923
:10D3E00022F003058C469E460D445CF8044BAC4588
:10D3F0004EF8044BF9D122F0030402F00305A242D7
:10D400002344214409D00A78012D1A7005D04A78A6
:10D41000022D5A7001D08A789A70BDE8F0810346D7
:10D42000DAE71546EFE70346ABE70EF101071D1FEC
:10D430000C4601EB870754F8046BBC4245F8046FB7
:10D44000F9D1C1E72DE9F04184075FFA81FE5FD091
:10D45000002A59D0034601E0002A55D003F801EB19
:10D46000990702F1FF32F7D14EEA0E24032A44EA6B
:10D4700004443ED9151FC3F38001AE08172D06F1F1
:10D48000010647D99846002940D048F8044B771A3E
:10D4900003EB810C79080CEBC101CCE900440CF1E1
:10D4A000080C6145F9D127F0010C08EB8C016745A8
:10D4B000CCEB8C7805EB880517D02F1F0C60032F61
:10D4C00013D9A5F108074C60032F0ED9A5F10C075D
:10D4D0008C60032F09D9A5F11007CC60032F04D964
:10D4E000143D0C61032D88BF4C6102F0030203EB75
:10D4F00086034AB1013A83F800E005D0012A83F897
:10D5000001E018BF83F802E0BDE8F0811546BEE7F0
:10D510000346A9E719461546CFE700BF014B1B6834
:10D520001B68184744000021014B1B685B681847C3
:10D5300044000021014B1B689B68184744000021F0
:10D54000014B1B681B6918474400002138B50E4C7D
:10D55000237803F0FF05B3B96378012B06D10223CA
:10D560006370636813B16368984765606378032BE1
:10D5700009D10025657063682BB1A3685B69984782
:10D5800063689847656038BD080C0021014B012293
:10D590009A777047080C0021042873B5064604D911
:10D5A00040F23D116820FFF7A5FD104D0124FFF763
:10D5B000CDFF2C706B78022B14D1AB683046DB6842
:10D5C000984705EB4602537D83420DD3AB7FA342C0
:10D5D00000D0137D8DF8043001A8AB688DF805608C
:10D5E0001B68984702B070BD2346F3E7080C002182
:10D5F00010B520B940F253116820FFF77BFD064BB0
:10D600005A78022A02D05A78032A04D19B68BDE8CE
:10D6100010405B68184710BD080C002110B5084C7D
:10D620006378022B02D06378032B02D1A3689B6836
:10D6300098470023A3772370BDE81040FFF786BF0B
:10D64000080C0021054B5A78022A02D05A78032A86
:10D6500002D19B681B69184700207047080C002105
:10D66000054B5A78022A02D05A78032A02D19B68C5
:10D670009B69184700207047080C0021024B58781E
:10D68000003818BF01207047080C002100207047A7
:10D69000074B1A684AB95A683AB99A682AB9D868D9
:10D6A000003818BF0120404270474FF0FF307047EC
:10D6B000740C0021104B1A6810B5CAB9DA6EBAB9E9
:10D6C0005A68AAB91C6F9CB993F848200AB900207F
:10D6D00010BD93F87420012193F8583002F1824272
:10D6E00002F520421160002BF1D001F0B9F8EEE70D
:10D6F0004FF0FF30ECE700BFC00C002138B5114CF3
:10D700002368E3B9D4F8A430CBB96368BBB9D4F8C3
:10D71000A050A5B994F8843023B101F005F928464A
:10D7200001F0F2F994F8480040B194F89D300122DC
:10D73000002003F1824303F520431A6038BD4FF007
:10D74000FF30FBE7480D00214FF0FF30704700002D
:10D7500070B50C46054688B1037823B1012B1CD067
:10D760006FF0150018E01F490B6991F8472091F8F8
:10D77000281000F03DFE78B91A4B1D607CB3237869
:10D78000012BEDD1174D204695F8462095F828102D
:10D7900000F098FD00B96C6070BD124A92F8281034
:10D7A000D1B192F8421010488900CEB230442E799F
:10D7B00046F0004606600D4892F83E60084446F088
:10D7C0000041B340016092F84700094A115002F548
:10D7D0009F42C2F80435CFE74FF0FF30DCE7204628
:10D7E000DAE700BF740C0021804001418041014113
:10D7F00080A0004170B50C46054688B1037823B17E
:10D80000012B1FD06FF015001BE01F498B6891F8AA
:10D81000672091F8281000F019FE90B91A4B1D608E
:10D8200064B12378012BEDD1174D204695F8662081
:10D8300095F8281000F078FD18B9EC6600F0FAFFB2
:10D84000002070BD104A92F82810D1B192F86310F0
:10D850000E488900CEB230442E7946F0004606606C
:10D860000B4892F85F60084446F00041B340016005
:10D8700092F86700074A115002F59F42C2F804353A
:10D88000CCE74FF0FF30DCE7C00C002180400141C5
:10D890008041014180A0004170B50C46054680B131
:10D8A000037823B1012B1CD06FF0150018E01F493D
:10D8B0008B681C3191F87F2001F060F880B91B4B18
:10D8C0001D6084B32378012BEED1184D204695F8C6
:10D8D0009A2095F8281000F059FD08B9C5F8A44021
:10D8E00070BD124A92F82810D1B192F891101048E8
:10D8F0008900CEB230442E7946F0004606600D48CD
:10D9000092F88B60084446F00041B340016092F801
:10D910009B00094A115002F59F42C2F80435CEE738
:10D920004FF0FF30DCE72046DAE700BF480D00216A
:10D93000804001418041014180A000414FF0FF3013
:10D940007047000010B5204C206888B1037833B1CF
:10D95000012B1CD040F24B217220FFF7CBFB94F837
:10D9600028301BB194F8471000F032FC00232360EC
:10D97000636853B11B78012B22D194F8461094F8B8
:10D98000280000F045FC00236360002010BD94F8DF
:10D990002820002AEAD094F83E20002193400B4A28
:10D9A000C2F808350A4B94F84720995094F8423051
:10D9B000084A9B00D150DBB2A2F58072D150D5E766
:10D9C00040F25A21C8E700BF740C002100F000416A
:10D9D00080A000418041014110B51F4C206880B1FA
:10D9E000037833B1012B1BD040F281217120FFF766
:10D9F00081FB94F8672094F8281000F081FD002343
:10DA00002360E36E53B11B78012B22D194F866108A
:10DA100094F8280000F01AFC0023E366002010BDF3
:10DA200094F82820002AEAD094F85F20002193403F
:10DA30000A4AC2F808350A4B94F86720995094F8BE
:10DA40006330084A9B00D150DBB2A2F58072D150FE
:10DA5000D5E74FF42471C9E7C00C002100F0004164
:10DA600080A000418041014110B5204C206880B168
:10DA7000037833B1012B1DD040F21F317620FFF720
:10DA800039FB94F89B2094F8281000F077FD0023D0
:10DA90002360D4F8A4305BB11B78012B23D194F818
:10DAA0009A1094F8280000F0EFFB0023C4F8A4308B
:10DAB000002010BD94F82820002AE8D094F88B208C
:10DAC000002193400A4AC2F808350A4B94F89B207B
:10DAD000995094F89130084A9B00D150DBB2A2F5DE
:10DAE0008072D150D3E740F22E31C7E7480D0021B4
:10DAF00000F0004180A000418041014170470000DA
:10DB00000D4A92F828304BB1C10707D592F846303C
:10DB1000012103F1824303F52043196092F8383064
:10DB20004BB1830707D592F84430012203F18243B9
:10DB300003F520431A607047740C00210D4A92F8D7
:10DB400028304BB1C10707D592F86630012103F1A7
:10DB5000824303F52043196092F838304BB18307B4
:10DB600007D592F86430012203F1824303F5204384
:10DB70001A607047C00C00210D4A92F828304BB152
:10DB8000C10707D592F89A30012103F1824303F5CA
:10DB90002043196092F838304BB1830707D592F8CB
:10DBA0009830012203F1824303F520431A60704745
:10DBB000480D00214FF0FF3070470000194B1A68E4
:10DBC00030B562BB9A6852BB93F83820CAB193F85B
:10DBD00041201549920093F84450D4B2214440F0BA
:10DBE00000440C60114993F83D40114444F0004258
:10DBF0000A600F494A51012201F59F41A240C1F834
:10DC0000042593F828202AB193F8461040F00040EC
:10DC1000074A50500122002083F8482030BD6FF0A1
:10DC20001500FBE7740C0021804001418041014157
:10DC300080A00041194B1A6830B562BB5A6852BBCC
:10DC400093F83820CAB193F862201549920093F8EE
:10DC50006450D4B2214440F000440C60114993F860
:10DC60005E40114444F000420A600F494A510122CB
:10DC700001F59F41A240C1F8042593F828202AB15C
:10DC800093F8661040F00040074A505001220020EF
:10DC900083F8682030BD6FF01500FBE7C00C002151
:10DCA000804001418041014180A00041194B1A6828
:10DCB00030B562BB5A6852BB93F83820CAB193F8AA
:10DCC00090201549920093F89850D4B2214440F026
:10DCD00000440C60114993F88A40114444F000421A
:10DCE0000A600F494A51012201F59F41A240C1F843
:10DCF000042593F828202AB193F89A1040F00040A8
:10DD0000074A50500122002083F89C2030BD6FF05C
:10DD10001500FBE7480D0021804001418041014191
:10DD200080A0004190F90030002B14BF6FF0150067
:10DD3000002070470146014819F061BD840C0021A4
:10DD400000230370704700000146014819F051BDDF
:10DD5000840C0021002219F0F8BC000013460A468A
:10DD60000146014819F064BD840C00214FF0FF30DA
:10DD70007047000070B50C46054678B1037813B1C2
:10DD80006FF0150070BD0E4E736996F8452096F839
:10DD9000381000F02DFB0028F4D1B56074B1237861
:10DDA000012BEDD1064D204695F8442095F838100A
:10DDB00000F088FA0028E5D1EC60E3E72046E1E7CF
:10DDC000740C002170B50C46054678B1037813B188
:10DDD0006FF0150070BD0E4EF36896F8652096F84A
:10DDE000381000F033FB0028F4D1756074B123784B
:10DDF000012BEDD1064D204695F8642095F838109A
:10DE000000F092FA0028E5D12C67E3E72046E1E72D
:10DE1000C00C002170B50C46054678B1037813B1EB
:10DE20006FF0150070BD0F4EF36806F12C0196F8E7
:10DE3000992000F0A3FD0028F4D175607CB123780F
:10DE4000012BEDD1074D204695F8982095F8381014
:10DE500000F09CFA0028E5D1C5F8A040E2E7204692
:10DE6000E0E700BF480D00214FF0FF307047000091
:10DE700010B5124CA06850B10378BBB994F8383093
:10DE80001BB194F8451000F0A3F90023A360E368E8
:10DE900053B11B78012B0ED194F8441094F838003C
:10DEA00000F0B6F90023E360002010BD4FF41D71AF
:10DEB0007220FFF71FF940F28321F9E7740C00216B
:10DEC00038B5114C606840B10578ADB994F865205B
:10DED00094F8381000F014FB6560236F53B11B7881
:10DEE000012B0ED194F8641094F8380000F0AEF9CC
:10DEF00000232367002038BD40F2AA217120FFF7DC
:10DF0000F9F840F2B921F9E7C00C002138B5124CFC
:10DF1000606840B10578BDB994F8992094F838103C
:10DF200000F02CFB6560D4F8A0305BB11B78012BAE
:10DF30000FD194F8981094F8380000F0A5F9002358
:10DF4000C4F8A030002038BD4FF452717620FFF79E
:10DF5000D1F840F25731F9E7480D00214FF0FF307A
:10DF600070470000154B93F8482022B393F83820EF
:10DF7000A2B193F83D10012200208A401049C1F857
:10DF80000825104A93F84410505093F841200E4948
:10DF900092008850D2B2A1F58071885093F8282061
:10DFA0002AB193F84610074A0A4400211160002064
:10DFB00083F8480070474FF0FF307047740C002121
:10DFC00000F0004180A0004180410141154B93F8D1
:10DFD000682022B393F83820A2B193F85E10012292
:10DFE00000208A401049C1F80825104A93F86410AF
:10DFF000505093F862200E4992008850D2B2A1F599
:10E000008071885093F828202AB193F86610074A47
:10E010000A4400211160002083F8680070474FF027
:10E02000FF307047C00C002100F0004180A000418B
:10E0300080410141154B93F89C2022B393F838207E
:10E04000A2B193F88A10012200208A401049C1F839
:10E050000825104A93F89810505093F890200E49D4
:10E0600092008850D2B2A1F58071885093F8282090
:10E070002AB193F89A10074A0A440021116000203F
:10E0800083F89C0070474FF0FF307047480D002127
:10E0900000F0004180A00041804101410023037055
:10E0A000704700000146014819F0BBBB840C0021F9
:10E0B00018B1034B1860002070474FF0FF307047D5
:10E0C0004C000021014B1B681B6818474C000021C5
:10E0D000014B1B689B6818474C000021014B1B68D3
:10E0E000DB6818474C000021014B1B681B6918476F
:10E0F0004C000021014B1B685B6918474C00002154
:10E10000014B1B685B6A18474C000021014B1B68E0
:10E110009B6A18474C000021014B1B68DB6A1847BB
:10E120004C000021014B1B685B6818474C00002124
:10E13000014B1870704700BF630C0021024B186838
:10E14000003818BF01207047640C0021014B1B6888
:10E15000184700BF640C0021024B5B6803B11847ED
:10E16000704700BF640C002138B5104D144695F976
:10E170000030C31A002BD4BF2B886B88A2F8013063
:10E1800092F90130C01A00F3070040B2FBF794F88F
:10E1900094F9013095F90020207018449A42E070FB
:10E1A0000CBF2B796B79A37038BD00BF6C0C0021BC
:10E1B00090F9002090F9023041889A42034B02887E
:10E1C000C7BF19805A8059801A8070476C0C002193
:10E1D00038B50C4B04460D4693F83C200123934080
:10E1E000094AC2F80835007C19F0D8FA074B00221A
:10E1F0005A518300616803F5A0739BB28033CA5003
:10E2000038BD00BF740C002100F0004180A0004127
:10E21000A0B10B4B93F8482072B193F844208A4286
:10E220000CD193F840300021064A9B00D150DBB25C
:10E23000A2F58072D1507047034B5A50704700BF0F
:10E24000740C00218041014180A00041A0B10B4B22
:10E2500093F8682072B193F864208A420CD193F845
:10E2600061300021064A9B00D150DBB2A2F58072DA
:10E27000D1507047034B5A50704700BFC00C00216B
:10E280008041014180A00041A0B10B4B93F89C203C
:10E2900072B193F898208A420CD193F88F30002104
:10E2A000064A9B00D150DBB2A2F58072D150704774
:10E2B000034B5A50704700BF480D00218041014177
:10E2C00080A00041034610B5F9B1134991F8480008
:10E2D000A8B191F8440090421AD191F840201B79DE
